:020000021000EC
:1080000000400020A9CD0100E5CD0100E7CD010031
:108010000000000000000000000000000000000060
:10802000000000000000000000000000E9CD010099
:108030000000000000000000EBCD0100EDCD0100CC
:10804000EFCD0100EFCD01000DCD0100EFCD01001E
:10805000EFCD01000000000039C10100EFCD0100AB
:10806000EFCD0100EFCD01006DCB0100EFCD0100A0
:10807000EFCD0100EFCD0100EFCD0100EFCD01000C
:10808000EFCD010081D20100EFCD0100EFCD010065
:10809000EFCD010049850100399F0100EFCD0100BE
:1080A000EFCD0100EFCD0100000000000000000056
:1080B00000000000000000000000000000000000C0
:1080C00010B5064C2378002B07D1054B002B02D0AE
:1080D000044800E000BF0123237010BD9020002061
:1080E000000000003C090200044B10B5002B03D037
:1080F0000349044800E000BF10BDC0460000000076
:10810000942000203C090200164B002B00D1144B98
:108110009D46402292029A1A924600218B460F46B3
:108120001348144A121A06F0ECF90F4B002B00D03A
:1081300098470E4B002B00D09847002000210400E8
:108140000D000D48002802D00C4804F0A0FB06F0FA
:1081500011F92000290004F0E4FC04F095FBC0466E
:1081600000000800004000200000000017CB0100C4
:1081700090200020C42600208FC8010000000000CD
:10818000704710B50368002B01D00800984710BD58
:1081900070B50400002521600E0045600C220830F7
:1081A000290006F0AEF9094BA5616361AE420AD120
:1081B000074D2B68002B02D103F052FE2860236884
:1081C0009B00EB586360200070BDC04683810100B6
:1081D000D020002070B500280DD1124C2668002E4A
:1081E00007D11C3004F0B8FB05003100FFF7D0FFC9
:1081F0002560206870BD01260B4D2B78BFF35B8F87
:108200000A4C334201D02000F4E7280004F070FB50
:108210000028F8D031002000FFF7BAFF280004F052
:1082200081FBF0E7B0200020AC200020B42000202B
:10823000030007B59A680830002A06D0034A002ACE
:1082400003D0019301A95B69984707BD81810100B3
:10825000704710B50800FFF7BDFFFFF7E9FF10BD3D
:10826000F7B5FA26B6007143009308AB1B780400FB
:10827000080013491700019307F0B6F885B23000E3
:10828000258078430E4907F0AFF8009B80B2A380A9
:10829000019B6080A371032D01D8042323808023D8
:1082A0002288DB019A4200D92380032801D80422C6
:1082B000628062889A4200D963802000FEBDC04679
:1082C000710200007047000070B50600094B0C36C3
:1082D00005000360002E0BD004002C34A64207D00A
:1082E000103CE368002BF9D09B6820009847F5E725
:1082F000280070BD1C06020010B50400064B036088
:10830000064B30300360064B436005F0F5FB200060
:10831000FFF7DAFF200010BD300502005005020013
:10832000AC05020008B4024B9C46303808BC6047DC
:10833000F982010008B4024B9C46343808BC6047FF
:10834000F982010010B50400FFF7BEFF200004F021
:1083500015FB200010BD10B5040004F00FFB200039
:1083600010BD0000F0B50E230125002787B0484E50
:1083700004AC237022002B0000951C21300004F077
:10838000D9FF2B0022001C210097300004F0F3FFDE
:10839000404D227830354049280005F0BFFB237856
:1083A000C42B70D13D49280005F0B8FB0823FF33EA
:1083B0002380063B0097FF3B22001C21300004F085
:1083C000B9FF1C370125324E04AC25702B0022006A
:1083D00039000095300004F0ADFF00232200009327
:1083E00039000233300004F0C6FF237862781B02A4
:1083F000D218284B12B2190030310391921128493A
:10840000039805F08BFB274805F01AFC0323220094
:10841000237039002B000095300004F08BFF0023FF
:108420002200009339000233300004F0A4FF2378C7
:1084300062781B02D21812B292111B49039805F000
:108440006DFB184805F0FCFB052322002370390062
:108450002B000095300004F06DFF002322000093F4
:1084600039000233300004F086FF237862781B0263
:10847000D21812B292110D49039805F04FFB09482A
:1084800005F0DEFB9EE70A49280005F047FBFEE702
:10849000D4200020EC200020E4FD0100F3FD0100C9
:1084A00024FE0100CDCC4C3E2BFE010032FE01002B
:1084B0000EFE010010B50400FFF71EFF200004F0BF
:1084C0005DFA200010BD08B4024B9C46303808BC51
:1084D0006047C046B584010008B4024B9C4634385E
:1084E00008BC6047B584010037B50E4C00221E2140
:1084F000200004F0EBFE0C4D0C492A00200004F093
:10850000C1F996230A4C9B010093192200231821DC
:10851000200004F08FFF2A000649200004F0B2F981
:1085200037BDC046D420002000200020C5820100B5
:10853000EC200020F98201002EDF704732DF704707
:1085400033DF70474CDF70470120054B10B51A78B8
:1085500050401870034B1B68002B00D0984710BD8B
:108560003C210020382100200C4B70B5050015205F
:108570000C001A60FFF7E2FF00280ED12900153029
:10858000FFF7DEFF002808D11530FFF7D5FF0028E0
:1085900003D121000330FFF7D5FF70BD3821002043
:1085A00010B50368984710BD002801D00B68036020
:1085B00070477047C36810B50400002B01D09B685A
:1085C0009847200010BD000010B50400064B036062
:1085D00004F080FF20002830FFF7ECFF200005F0BA
:1085E00045F8200010BDC0460806020010B5040082
:1085F000FFF7EAFF200004F0C1F9200010BD0000E1
:1086000010B5074C200005F009F8064B064A236018
:10861000002306496363200004F034F910BDC0460E
:10862000402100200806020000200020C98501002A
:108630007FDF704782DF7047A7DF7047A9DF704791
:10864000AADF704700207047002070470020704765
:10865000F7B504000E006A468178204801F096FACA
:1086600000283AD10C2362781D4F5A431D4B9B18AA
:108670009B7A5B0605D4022E03D01B4F012E00D03F
:108680001A4F1C25A3781A496B432A00C91868465B
:108690000023B84700281ED1022E1ED00C2261787C
:1086A000104B4A439B189A7A4030694382439A722E
:1086B000104B2A00591868462B00B8470C23227823
:1086C00021005A430C4B68469B189B7A0B4A9B002F
:1086D0009B58984701E0022EF0D1F7BD04220020FC
:1086E000519C0100A0210020D99B0100458601007A
:1086F000CC210020842100207821002068FE010088
:10870000F7B518220190437828485A4381184C68DD
:10871000274F002C30D00C2159437918897A4DB25B
:10872000002D28DA490626D41500A6B208351458BB
:1087300045190C225343FB181889320023002900E5
:10874000FFF77CFF0B281AD10C22019B29005B78D4
:108750005343FB18188932000123FFF76FFF0C21E8
:10876000019B144A5B784B43FF183889FFF764FF7D
:1087700000280AD1FEBD002426002500D9E70028E4
:1087800000D00D48012CF5D1E9E702220B4BC318AC
:10879000934308D0082806D0113843425841064B6D
:1087A00040421840E6E70448E4E7C046AC21002018
:1087B000A0210020FFFF000041800000FECFFFFF4E
:1087C00010B5FFF79DFF10BDF0B589B002AB9D1D40
:1087D0000E230C27019000912B804B78224A7B437B
:1087E000D31818892A00032304A9FFF729FF0028BA
:1087F0001AD11826009B1D4C58782A8870430830DF
:10880000201804A905F065FE009B5B7800280ED1B6
:108810005F43154AD7190222B97A114004D1734334
:108820003200E01805F06DFE002009B0F0BD5E4397
:10883000A61972680E4F002A00D10E4F1826032287
:108840007343E2502A88E11808334A60E01804A90B
:1088500005F04EFE009B3200597801987143382391
:108860006118B847E0E7C046A0210020AC210020F5
:10887000519C0100D99B010010B5FFF7A5FF10BD69
:10888000F8B5182507004878094C68430E002018F1
:1088900038232A00390001F017FA002806D173782E
:1088A0005D4364196368013300D16060F8BDC04660
:1088B000AC21002010B5FFF7E3FF10BD002070478A
:1088C00000207047002070470020704770B51C25BD
:1088D0004543060028000D4C11302018062264196B
:1088E000002105F00EFE10220021200005F009FEF7
:1088F000FF232374A376013BFF3B23830233B34062
:10890000034A11689943116070BDC046CC21002014
:10891000C821002037B581B205006A46074801F03A
:1089200035F9041E08D15421684601F019FA041ED5
:1089300002D12800FFF7CAFF20003EBD042200201C
:10894000F0B51C00454B93B01B68070000910192E5
:10895000002B41D0189B542B3ED80021404B06AE33
:108960000393189B04AA3F4831700B940A9301F0BB
:108970000DF9051E06D1082204A9380005F0A9FD4D
:1089800000280ED004AA0121364801F0FFF8002883
:1089900009D1082204A9380005F09BFD002802D166
:1089A000012503AB9D7003ADA978FF2914D0009B6E
:1089B000032B15D1189A06AB542A0FD1343A1A70EA
:1089C000032219780A431A7009AB0793234B019AC3
:1089D0001B6806A92800984713B0F0BD4022EEE7B7
:1089E000214BE31A372B16D82048019A0368002A36
:1089F00003D101328A401342EED001228A409343D0
:108A00002022036006AB1A70009A06AB1978022A7E
:108A100021D10122D6E7164BE31A1B2B08D82023BD
:108A2000337000236B700CAB0B9318230A93EBE7A6
:108A30001048241A172CCFD83023337000236B70C2
:108A40000133EB700C4B997A02231940DCD11822C8
:108A500005F057FDD8E70222B4E7C0467821002090
:108A600000FFFFFF04220020CC210020C8210020AD
:108A700084210020AC210020A0210020F0B50500B9
:108A800085B000285CD000242E4B01261C605C724F
:108A90009C72FF232C485B427642438121000722CF
:108AA000068105F02EFD21001822284805F029FD39
:108AB0002000FFF70BFF264C01202670FFF706FF72
:108AC000FF236370234B244C0193244B2100684601
:108AD000009300F0FFFF002827D10127204E2B78BC
:108AE0003770002B23D1010002AA200001F04EF8BC
:108AF000002818D11B4D03001C2202A9280001F0F8
:108B0000E3F800280FD102AA3900200001F03EF856
:108B1000002808D11C3503001C2202A9280001F0FE
:108B2000D3F8002801D00023337005B0F0BD6B46A8
:108B30009988DB882000594389B201F011F9F4E7E4
:108B40000948F2E778210020A0210020AC21002074
:108B5000C4210020540002000422002041890100A9
:108B6000C6210020CC2100200E800000F8B5174B54
:108B700006001B780F00002B22D0002822D00029ED
:108B800020D00B68002B1DD0114D2C68002C1BD160
:108B90002800053108C0052205F0AAFC01210222A7
:108BA00004203B79AB722B7A8B43134383432B72A4
:108BB000EB7919430A4382432000EA713470F8BD0F
:108BC0000448FCE70448FAE70448F8E7C621002017
:108BD00078210020088000000E8000000480000042
:108BE000154B1B78002B22D000281ED000291CD04A
:108BF0000378002B1BD1114B1B68002B17D0427838
:108C0000002A16D10E4B9B7A012B12D0242018403B
:108C100003D0012310000B7070475BB2002B02DA07
:108C200002230B70F8E70870F6E70648F4E70648F9
:108C3000F2E70648F0E7C046C62100207821002070
:108C4000A02100200E80000008800000108000009D
:108C5000344BF7B51B78002B61D000285DD000297C
:108C60005BD00C68002C58D08E68002E55D003784D
:108C7000002B54D12C4B1B68002B50D02B4B987AD7
:108C8000DF7A022318400190002F23D00B7B002BAA
:108C900013D100220D79954206D0254DA87E80077C
:108CA00002D4103525600132012F18D10198002817
:108CB00015D000200A710B73FEBD1D4D0122AB7E45
:108CC0009C46604600231042E3D13560194D2B705D
:108CD0001300DEE7019B002BD8D03B003A00087B55
:108CE00098420CD91248050036352F7801252F42BD
:108CF00005D19F001C30B8510E48C5545B19087946
:108D00009042D6D90A48050036352D78AD07D0D423
:108D100095002C3028510132CBE70748CCE70748B3
:108D2000CAE7C046C621002078210020A0210020EB
:108D3000CC210020C42100200E800000088000000B
:108D40000F4B10B51B78002B18D0002814D00078DA
:108D5000002813D10B4B1B68002B0FD00A4CA37EAD
:108D6000FF2B01D0FFF7D6FD36342378FF2B02D03E
:108D70000120FFF7CFFD10BD0448FCE70448FAE7E7
:108D8000C621002078210020CC2100200E80000088
:108D90000880000013B5040081786A460B4800F093
:108DA000F5FE002810D11C22637809485343694618
:108DB000C018130000F088FF064B074A9B7A210079
:108DC0009B009B586846984713BDC046042200206C
:108DD000842100207821002058FE0100FF23F0B5F7
:108DE0008FB00393C04B05001B78002B3ED0BF4BC8
:108DF0001B680193002B39D0031D06932A2302AA76
:108E00009382BB4BBB4C04930388A27A102B29D0CE
:108E10008188900707D5B848814200D13DE120897B
:108E2000884200D139E1172B00D1D3E000D93AE1D3
:108E3000132B63D0142B3FD0112B17D10223110019
:108E40009943A17204AD12072ED54BB2002B03DA61
:108E500000212800FFF7FCFB1023A372023302AAB3
:108E6000137317E00126324200D053E10FB0F0BD7A
:108E7000A24A5B08D35CFF2B00D003930822A17A9F
:108E8000039B0A43DBB2A272E37202AA04A89372A4
:108E9000FFF780FF002472E02A8B974B9A4200D0A4
:108EA00063E13E000396E9E7A878FF28D4D0FFF7F6
:108EB0000DFDFF23AB70CFE7E37A914EFF2B10D16E
:108EC000EB89318B994217D0B18E994209D1012398
:108ED0000821DBB20A4304A8E372A2728370FFF791
:108EE00059FFE37A8749FF2B00D10021A88800238E
:108EF0003200FFF79FFBB9E70023E9E7132302A93C
:108F00000B730F3B1A43E37AA2727D4EFF2B53D1B2
:108F1000B37EFF2B07D0330036331B780127FF2B9E
:108F200002D0794C15E000271C20784323783018B4
:108F3000022B3ED0FD23103083720722210005F062
:108F4000D7FA03AB1F70039B04AADBB29370E372E2
:108F500000240021674B0B91DA7A1C235343F61847
:108F6000684B0C960893614B0D9109910A911A1D5B
:108F7000A88808ABFFF75CFB002800D076E75B4BC6
:108F800022001B6805A904A8984702AB1B7B122B83
:108F900000D06BE75748837A012B00D166E70123A5
:108FA0005B420381FE3B43810722002105F0A9FAC1
:108FB0005CE7FE238376C4E71623544802AA1373A2
:108FC00000210E22083005F09CFA4023A27A1343B8
:108FD000A372BDE70126454B44495B7A1420B34395
:108FE0004B72042343499A4302AC8A722073A879D6
:108FF000002804D0C87AFFF78DFCAC79BFE7E87988
:10900000184200D146E704ACA078FF2800D141E720
:1090100008231A43EB7A8A729B0706D51C22424327
:10902000374B9B189A7EB2439A76CB7AFF2B00D1AE
:1090300030E71C234343324D0A78ED18022A0DD045
:1090400028000722103005F053FA0222AB7E93432A
:10905000AB7601212000FFF7FBFA1BE7294B012229
:109060005B8A2B83AB7EF2E780235B421A43A272BA
:10907000953302AA13731D4B254A9B7A04A89B00C3
:109080009B58984706E7194B214A9B7A04A89B00F6
:109090009B589847EAE61323E1E6E07A04A9887032
:1090A00000204870BFE61C2BF5D0522BEBD0182BBC
:1090B00000D0DBE6AB79112BD6D11307D4D51348FA
:1090C0000E220021083005F01CFA162302AA1373A1
:1090D000A27A4A331343A372044B5A7A02231343EE
:1090E000024A5372D6E6C046C621002078210020ED
:1090F00000FFFFFFA0210020FFFF0000C42100208F
:10910000CC2100208421002043800000AC210020DD
:1091100048FE0100112302AA1373002353728388AF
:10912000871D238102230722A3723900200005F046
:10913000DFF92B7D334200D09AE60E4D002F00D18F
:10914000AAE6280007221030390005F0C2F90028ED
:1091500001D10600A6E6280007222C30390005F0D0
:10916000B8F9002800D095E69CE6AA8E9A4200D075
:1091700090E697E6CC21002030B5002913D00A787C
:10918000002A12D10A4B1B68002B0ED0FF23094C7A
:109190008B702589FA3B854203D14A70E37A8B7044
:1091A0001300180030BD044BFBE7044BF9E7C04641
:1091B00078210020A02100200E80000008800000FF
:1091C0004DDF704730B500230D0014008DB06946A7
:1091D000C21AD27B5A540133102BF8D100210D2230
:1091E00004A805F08EF96A462B786846D3776B7829
:1091F0009377AB785377FFF7E3FF2F236B441B780C
:1092000023702E236B441B7863702D236B441B78D3
:10921000A3700DB030BD30B50378040085B00D00EB
:109220000020022B16D1611C032201A805F060F971
:10923000211D032203A805F05BF902AA03A9280057
:10924000FFF7C0FF032202A901A805F042F943423B
:109250005841C0B205B030BD064B10B558698023E7
:109260005B05421C04D0196989B206F0BDF810BD37
:109270005869FCE70010001029DF704728DF7047AD
:10928000034B10B51B78034A9B009B58984710BDB1
:109290006522002078FE01000B0037B50C24020087
:1092A00018009D6809786C43044D08302D680095BE
:1092B000034D1B696459A04737BDC0460C220020EE
:1092C0001022002080225205116914220E4B10B585
:1092D000187889B242439B181A69501EDA881B8994
:1092E0008018C01806F080F8084B1A6801238242E3
:1092F00007D30023824204D1054B1B6858424341E7
:10930000DBB2180010BDC0461C22002048220020FD
:1093100068220020082310B5034A116899431160A0
:10932000FFF7AEFF10BDC0464C220020094910B522
:109330000A6813070AD4930702D5012313430B606D
:109340000222054B1A70FFF79BFF10BDFFF7E2FFEB
:10935000FBE7C0464C22002065220020064B10B5DA
:109360001B681B0705D40122044B1A70FFF788FF06
:1093700010BDFFF7CFFFFBE74C2200206522002045
:1093800010B5002806D0112805D10823094A116814
:109390000B43136010BD1423074A1178594304315D
:1093A0005118FFF779FF0422044B1A7000F096F869
:1093B000F0E7C0464C2200201C220020642200203E
:1093C00010B5FFF759FFFFF7DBFF10BD70B5142490
:1093D0008025114B6D051A78104E54431C192B69CA
:1093E00021692089E2889BB2401861699A420DD9AF
:1093F0002C69A4B2141B2A69091992B29208201888
:10940000FFF7DEFF2B699BB2336070BD9208FFF758
:10941000D7FFE388F8E7C0461C2200205C2200202A
:1094200070B58025094B6D052A691B6894B2013B14
:109430005C43FFF711FF2B69411E9BB25943044B5C
:1094400020001A68FFF7BCFF70BDC046482200200C
:1094500050220020142270B580260E4B7605197814
:109460004A439B181A89DC881B69A4183169E418DF
:10947000200089B206F03EF80D00FFF7EDFE3369DB
:10948000411E9BB25943044B49191A682000FFF74B
:1094900097FF70BD1C2200206822002010B5FFF746
:1094A000DBFE8022074952051369146909681269B5
:1094B000A4B2614392B2441E98B292086043FFF78F
:1094C0007FFF10BD4822002010B5034B1868FFF73E
:1094D000D5FEFFF755FF10BD48220020F0B52B4BFD
:1094E00085B0187803280ED805F074FF020F124DCE
:1094F0000023274A1360274A1360274B5B78002B11
:1095000001D000F0F5F805B0F0BDFFF75FFFFAE716
:10951000224C14252368802701930123019A7F059B
:109520009A431D4B226002921A78396955435D199E
:109530002B6989B21800039305F056FF184B0600FB
:109540001860039B3969581EEB8889B2C01805F072
:109550004BFF864210D10223029A13432360114B22
:109560001A68114B002A0CD121680232114208D12D
:109570001A70FFF785FEC6E70323019A9A4313008A
:10958000ECE70022F4E7FFF79FFFBCE7642200202E
:10959000602200205C2200201C2200204C2200209F
:1095A00048220020502200206522002014230C2095
:1095B000F0B58025484A85B011786D054B43D31826
:1095C000DF68464A7843121814895089526860430C
:1095D000821829691C890292DA881E6913199B195D
:1095E0000193002303923E4A89B21360300005F0D4
:1095F00081FF2A00002918D12B6903999BB2994257
:1096000005D0029B01998B424ED1002C58D1116993
:10961000300089B205F0E8FE324B18600323324A6D
:109620001370FFF75BFF05B0F0BD022FEFD0296983
:10963000A01989B205F05EFF2C4B89081960019AC8
:10964000029B2969934220D089B2019805F052FF0C
:1096500000291AD080246B4664052169188989B2D3
:109660009F8805F0C1FE26690500B1B2380005F0FB
:10967000BBFEADB280B2854209D16B466A461B89FA
:1096800092889B1A164A9B0813600223C7E7236936
:109690002169380089B29CB205F02CFF89B2641AA6
:1096A0000F4BA4081C60F0E7022FB0D02969A01965
:1096B00089B205F01FFF0D4B890819602969C3E7BE
:1096C000022FA4D02969A01989B205F013FF074B16
:1096D000890819602B69D8E71C220020102200207D
:1096E000682200204822002064220020502200200E
:1096F00014220D4B10B519784A439B18D9880B4A90
:109700001B791160DAB2012A05D0002A02D0033B8E
:10971000012B05D910BD064B1A70FFF7DFFEF9E7E4
:10972000FFF744FFF6E7C0461C2200200C22002071
:1097300064220020F7B5124E0193757808AC278893
:109740000424022D19D034786419012C00DD023C68
:1097500014235C4334196261220020710C3209C960
:1097600009C2019B2781E3800024064B01351B7849
:109770007570A34201D1FFF7BBFF2000FEBDC046BC
:109780001C2200206422002070B51424114D0020FA
:109790002978614304316918FFF77EFD2300002218
:1097A000012029784B43EB181A71DA80D8601A61CE
:1097B0005A611A816B780918013BC9B26B70022992
:1097C00005D02970044B1A70FFF788FE70BD2A700F
:1097D000F8E7C0461C220020642200201422084B17
:1097E00010B519784A439B181B79042B02D0FFF758
:1097F000CBFF10BD0122034B1A70FFF76FFEF8E795
:109800001C22002064220020F8B508241E4E376870
:109810003C4035D180235B0519691C4B1D68002D28
:109820001BD014221A4B89B2187842439B181A692C
:10983000501EDA881B898018C01805F0D5FD154B1D
:109840001B68984209D1144B1C6001231F43134B22
:1098500037601C70FFF714FDF8BDFFF733FD0028DB
:1098600006D000220C4B1A600C4B02321A70F1E742
:10987000002D02D0094B0322F8E7FFF7AFFFEBE71B
:10988000FFF748FDE8E7C0464C2200206822002090
:109890001C220020482200205022002065220020A7
:1098A000054B10B51B681B0702D4FFF797FF10BDCF
:1098B000FFF730FDFBE7C0464C22002070B5174D86
:1098C0002C68230727D4164A136801331360154BFD
:1098D0001B68002B05D00422134B1A70FFF7D0FC35
:1098E00070BDFFF7EFFC002802D00F4B0222F4E717
:1098F0000E4B1B68002B0BD0012321000A4A194094
:1099000003D123432B601170E8E703231370E5E7CD
:10991000FFF764FFE4E7FFF7FDFCE1E74C220020DE
:1099200048220020502200206522002068220020CA
:109930001E4B10B51B78022B30D0032B19D0012BF6
:1099400013D108211A4A13680B4222D11423194A51
:1099500011784B43D218184B1968D3885B1A9BB205
:10996000D380002B02D1FFF70FFF10BDFFF72EFDB4
:10997000FBE708210E4A13680B420AD10F4A13680D
:1099800001331360FFF79EFC002804D1FFF726FF88
:10999000EBE78B431360FFF7A1FDE6E7084B094AAD
:1099A0001B789B009B589847DFE7C0466422002045
:1099B0004C2200201C2200205C2200204822002093
:1099C000652200208CFE010010B5FFF745FC8022C7
:1099D000520513691169421E98B2504389B205F0CD
:1099E00003FDFFF74BFCFFF7CBFC10BD70B5154C2A
:1099F000042522781300AB4303D002281FD003288C
:109A000000D070BD104B1B681B0718D40F490B68A2
:109A100001330B60032B07D0022A02D0FFF75EFD53
:109A2000EFE7FFF72DFCECE71423094A0D2011782E
:109A3000594304315118FFF72FFC2570EEE7FFF76B
:109A400077FFDEE7642200204C2200206022002005
:109A50001C22002010B501220024154B1C801C7113
:109A6000DC80DA601C615C611C811C765C831A629C
:109A70005C629C629C830F4B1C80FFF7EDFB802394
:109A80005B051B69821E98B2504304220A4B186082
:109A90000A4B20001C600A4B1C609C60094B1C7028
:109AA000094B1C60094B1C60094B1A6010BDC04675
:109AB0001C2200205422002058220020482200208E
:109AC0001022002064220020602200205C2200205E
:109AD0004C220020294BF7B51B6804000E0008201B
:109AE0005B070FD50630002C0CD000290AD0236864
:109AF000002B07D080277F053A69A38892B2934252
:109B000001D90720FEBD0F2BFBD9E288002AF8D02F
:109B100053431B490D685B190193FFF79DFB3B699C
:109B2000421E98B25043019B8342EAD8A288930711
:109B3000E7D1144B04201F88012FE3D00C237B4373
:109B40003760756010482668C1181E5080234D602C
:109B50000A81E0885B05488150431969013889B260
:109B60001C6905F0CBFCA4B201304443044B6519D9
:109B70001D60044B01371F800020C3E74C220020EA
:109B8000582200205422002010220020104B30B513
:109B90001C680823640717D50633002814D0002A50
:109BA00012D00368002B11D10A4D2C68002C0DD067
:109BB0002C894068614309186889444368682418FF
:109BC000A14203D213605160180030BD0723FBE7A8
:109BD0004C22002010220020F7B505001A48046826
:109BE000082064072FD5063000292CD0002D2AD05C
:109BF0002C680738002C26D1144884466446246813
:109C00000720002C1FD060460689448940687443B1
:109C10006F6824180720A74215D2002A13D0964255
:109C200011D3D418A6420EDB0324093021420AD1F5
:109C3000234208D1274206D100930F3813000A00AF
:109C40002900FFF777FDFEBD4C22002010220020E6
:109C5000F7B505001A480468082064072FD50630B8
:109C600000292CD0002D2AD02C680738002C26D1B2
:109C700014488446644624680720002C1FD06046A0
:109C800006894489406874436F6824180720A742F6
:109C900015D2002A13D0964211D3D418A6420EDB57
:109CA0000324093021420AD1234208D1274206D198
:109CB00000930C3813000A002900FFF73BFDFEBD9E
:109CC0004C22002010220020F0B51700224A85B057
:109CD000126802900D009C460824530734D50634C0
:109CE000002931D000282FD00C68002C2FD11B4E1A
:109CF0003268002A2BD030897289736842434968E0
:109D0000D218914223D2002F21D0B8421FD36346EC
:109D1000FA1890421BDB0322029B134219D16346BF
:109D2000134216D10A40039213D161443A000298BB
:109D300004F0DEFB0C232A68009753430221F658F7
:109D4000039A029B2800B047200005B0F0BD07240D
:109D5000FAE71024F8E7C0464C2200201022002029
:109D6000F0B51E4B05001B6885B00E0008205B0790
:109D700032D50630002D2FD02B680738002B2BD181
:109D8000174A1368002B27D01789536852896C68CB
:109D90007A43D218039294421ED20930A2071BD1F3
:109DA000E01A390005F0A6FB0720002914D139007C
:109DB000300005F09FFB89B2072000290CD1002E4E
:109DC0000AD0039B3419A34206D300223300009229
:109DD00029000438FFF7AEFC05B0F0BD4C2200208E
:109DE000102200202EDF704751DF704710DF7047D0
:109DF00011DF704761DF704710B50800110000F0F7
:109E0000F9F910BDF0B5254B85B01B78DBB2009396
:109E1000002B18D0224E234F33685A425A41D2B2F7
:109E200001923A68002A14D1009C002B0BD021E04B
:109E300003983B6898472C0019E02800336898473E
:109E400029E0002C05D005B0F0BD002CFBD1009C12
:109E5000019403A8FFF7C8FF009C0500052806D061
:109E60000028E5D00022110000F0C6F90024019B73
:109E7000002BE6D10C4B03A91B880B800B4B1D68F4
:109E80002800FFF7B7FF0528DFD00028D5D0002233
:109E9000110000F0B1F9002CECD1D9E778220020B4
:109EA000702200207C2200206C22002080220020D2
:109EB00070B504000720002913D08D0711D109487F
:109EC0000160094920000A80084A09491360FFF728
:109ED0008DFF002805D10122064B16301A70FFF7BE
:109EE00081FF70BD802200206C220020742200209F
:109EF000F99D01007822002010B5FFF779FF0300DB
:109F00005A1E9341014ADBB2137010BD7822002023
:109F10000E23002802D0024B18600023180070475F
:109F2000702200200E23002802D0024B186000236C
:109F3000180070477C220020074B10B51B68002BCF
:109F400007D09847002803D00022110000F054F9F0
:109F500010BDFFF757FFFBE77422002070DF70474A
:109F600071DF704760DF704710B5FFF73FFD10BD30
:109F7000074B10B51C78002C07D1012220001A7065
:109F800001F072FF2100FEF764F9002010BDC04609
:109F9000CC220020F0B58BB00500FEF71FFF00209B
:109FA00001F062FF036806009B699847336804006C
:109FB0001B6A3000984733680700DB6A3000984717
:109FC0000300288810380B2875D805F003FA064BD3
:109FD0007474746E7474747A7497AE88200031004F
:109FE00000F016FEAB7920009C466B7B01210193AB
:109FF0000223583002788A431343220003705632FA
:10A00000137805A85B181370624604AB9970DA7078
:10A010001E80002304AA05931381D3721373537314
:10A020009373D37313742B00019916339172E91D46
:10A030000622099304F05CFA29000B2004AB0622E7
:10A040000E31C01804F054FA94346368A360A06819
:10A05000002830D0C36804A99847A368002BF4D027
:10A060001B69F3E738492000AE8800F0D1FD2100DC
:10A0700056310B78AA79013BDBB20B70002B03D170
:10A0800002208B7883438B7004AB1E809A70A034BF
:10A090006368A360A06800280DD0C36804A998472E
:10A0A000A368002BF4D01B69F3E75B69A888A91D9E
:10A0B000002B00D098472900380001F00DFA0BB0B2
:10A0C000F0BDAE79002E05D122000121583213785F
:10A0D0008B431370636E002BEDD01C4A002AEAD02C
:10A0E000A366A06E0028E6D0C36831009847A36E2F
:10A0F000002B01D1636EF3E71B69F1E7012269468A
:10A100000D26AB7BAE571A4001925A07920FDB081F
:10A110000A720B730622E91D04A804F0E9F9019AFA
:10A1200004ABDA716A46127A9E711A726A46127B21
:10A1300020005A722B000F3307938C348030236831
:10A1400004A99847B7E7C046FFFF000081810100DE
:10A150001FB58022A323D205DB00D3580820DB07DC
:10A1600000D405301D4B48221D49FFF7A1FE0028F1
:10A170000BD080B2002808D1BFF34F8F194B1A4A79
:10A18000DA60BFF34F8FC046FDE702AC0822002122
:10A19000200004F0B6F9012320002370FFF7E2FE4F
:10A1A000002802D0072004B010BD6846FFF7D8FE93
:10A1B0000028F7D16946FFF7D1FE0028F2D10B48FD
:10A1C000FFF7A6FE80B20028EDD10948FFF7AAFEEE
:10A1D00080B20028E7D100F029F8E4E7719F010080
:10A1E0008422002000ED00E00400FA05959F0100A4
:10A1F000699F01007047000080B2002808D1BFF3BA
:10A200004F8F044B044ADA60BFF34F8FC046FDE71F
:10A210007047C04600ED00E00400FA0577DF7047A4
:10A2200078DF70477ADF70477CDF70477FB50023A7
:10A2300002ACA380134B144E0293C8235B00E3804F
:10A24000803BFF3B01AD30002B7004F073FD31000B
:10A2500082B22800FFF7E8FF80B200280FD18020EB
:10A260008000FFF7DDFF80B2002808D12000FFF753
:10A27000D9FF80B2002802D1FFF7D0FF80B204B02E
:10A2800070BDC04628009001A0FE01007EDF70472F
:10A2900068DF704770B500200D0001F0E5FD036830
:10A2A000DB6A98472B780400142B1ED003D8132B9D
:10A2B0000CD0002070BD152B1FD0222BF9D16B685C
:10A2C00018882369002BF4D09847F2E76B680125C2
:10A2D00018889B78646819005A08DB0629402A40D0
:10A2E0005B0F002CE5D0A047E3E76B6818889978EE
:10A2F000A368002BDDD09847DBE7686882781309F4
:10A300001207120F012A03D0022A0BD0002106E007
:10A31000013BDBB20021022B01D8064AD15C008848
:10A32000E368E6E70421012BF9D00131022BF6D0D6
:10A33000ECE7C046A6FE0100014B18787047C04606
:10A34000CD220020F0B51D000023304F87B00092D1
:10A350003A7806000C009A4204D1FFF77BFB0028F4
:10A3600003D00B23180007B0F0BD002D0ED003A9B9
:10A3700022200395FFF78CFF002807D0062308282A
:10A38000F0D01138434243410433EBE7002302AAE3
:10A3900010001370FEF772FB0028E2D101251C4962
:10A3A00002220B782E40AB4333430726934301939D
:10A3B000009B2C4033409340AC409C46019B02AA3A
:10A3C0001C431C239C4363461C430E239B1818808C
:10A3D000104B0C700393022303AC2371093002ABC2
:10A3E0000522C01804F084F821000B48FEF7BEFBDC
:10A3F000002807D033000428B4D0013B0828B1D08E
:10A400000533AFE73D700300ACE7C046CD22002026
:10A410000420002095A20100CE22002010B507489C
:10A42000FEF78EFC0023984206D00733042803D0A1
:10A43000013B082800D00533180010BDCE220020B3
:10A44000002373B501930F4B01AD1B780E0029005B
:10A450002B70FEF791FE041E05D00423052800D0C2
:10A460000733180076BD31002800FEF7B9FB230042
:10A470000028F6D007230428F3D0013B0828F0D0A9
:10A480000533EEE7CE22002073B5114C0E00050017
:10A4900005222100684604F02BF8012E03D0022E7D
:10A4A00010D002230CE002222378B3439343694681
:10A4B00028002370FFF7EAFE0023984200D00B33F8
:10A4C000180076BD012322781343B343EFE7C0465B
:10A4D00004200020094B10B51A7801000923002A36
:10A4E00009D00748FEF7B4FB0023984203D003339A
:10A4F0000E2800D00333180010BDC046CD22002026
:10A50000CE22002010B5FEF786FE10BD022310B546
:10A510000B708C330B713F3B4B712D338B714A1C8D
:10A520000431FEF74FFE10BDA2DF7047A3DF704776
:10A5300063DF704710B586B06B46DC1D002302AAAE
:10A540002370C15C99540133102BFAD12100100003
:10A55000FFF7EEFF0023984200D12378180006B0E1
:10A5600010BD00000122F0B5438A87B00393037841
:10A5700004000192002B3AD0234E83180093234A03
:10A58000336800279C461100BC4511D00023981E5B
:10A59000012804D90098D55CC05C854231D10133D3
:10A5A000102BF4D11120784309180B7C01931EE085
:10A5B0000098FFF7BFFF237802900190002B01D194
:10A5C00012340094042F12D01125380068430F4C28
:10A5D00010222018009903F08BFF002233685D439E
:10A5E0006419A270E270029A013322743360019AF6
:10A5F00005AB9A705888039B00040343180007B00A
:10A60000F0BD01371132BFE7D0220020D422002054
:10A61000F0B59BB01F0020AB029102CB0BAC1B88A6
:10A620000391049322AB1B880190059323AB1B7805
:10A630002000069325AB1E8826AB1B78079327AB1B
:10A640001B78089308ABD91D0A70012203F050FF54
:10A65000302322781A420ED00CAC032200212000B5
:10A6600003F04FFF0622A37893431A0002231343FB
:10A67000A3703A4B238013AC1C220021200003F06E
:10A6800040FF0BAB1D7830232B40591E8B410CAA89
:10A690005B421A4025706261002E05D0249B002B7E
:10A6A00002D06360268166810DAC03220021200068
:10A6B00003F027FF0121079B089A0B400A40120173
:10A6C000DB001343069A0A401100022213430B4396
:10A6D000A37032231D4209D0781E042806D804F046
:10A6E00079FE031012141600112323700C231D424F
:10A6F00011D0781E04280ED804F06CFE0B27292BED
:10A700002D002123F1E73123EFE71223EDE7222388
:10A71000EBE711236370222008AB06220021C0184A
:10A7200003F0EFFE029B0EAD0E93049B2A002B81DB
:10A73000059B13A9AB81039B01982B61289B6C603F
:10A74000FFF7F2FE80B21BB0F0BD2123E2E7312318
:10A75000E0E71223DEE72223DCE7C0461111000008
:10A76000F0B589B000930EAB1B8805000F001600F2
:10A77000019303220FAB002102A81C7803F0C1FE55
:10A7800001230E201C40DB181C4302AB9C700D4BB8
:10A7900002AA138002AB06220021C01803F0B1FE0A
:10A7A00003AC02AB6360009B109A2381019B2100E4
:10A7B00028000397A3812661FFF7B8FE80B209B095
:10A7C000F0BDC04611110000022070470220704702
:10A7D00070DF704771DF704772DF704773DF70475B
:10A7E00074DF704775DF704776DF704777DF70473B
:10A7F00078DF704779DF70477ADF70477BDF70471B
:10A800007CDF70477DDF704788DF7047142070471A
:10A8100064207047A0208001704710B50400FFF746
:10A82000DFFF0323002805D10121030058342278DB
:10A830008A432270180010BD08003B2110B58A42DF
:10A8400000D02839FFF7D0FF0323002800D10300F0
:10A85000180010BD030010B5FE330A00598E0368BE
:10A860001B6A984710BD10B50800FFF7C7FF032308
:10A87000002800D10300180010BD10B50800FFF734
:10A88000BBFF0323002800D10300180010BD0800FF
:10A8900010B51100FFF7A6FF0023984200D0033344
:10A8A000180010BD080010B51100FFF7ABFF002322
:10A8B000984200D00333180010BD10B50800FFF710
:10A8C00097FF0023984200D00333180010BD10B545
:10A8D0000800FFF78FFF0023984200D003331800D1
:10A8E00010BD10B50800FFF781FF0023984203D088
:10A8F0000533112800D0023B180010BD024B0B603D
:10A90000092313607047C04644FF010008207047C8
:10A91000B830017000207047B930017000207047D6
:10A9200002207047B83000787047B930007870471F
:10A930000020704710B50368002B01D0080098472D
:10A9400010BD10B50368002B01D00800984710BD5A
:10A950000200030010B5F33211786C309B6F9847FA
:10A9600010BD10B5002801D01CC91CC010BD704717
:10A97000030010B542689968501008181B68D20788
:10A9800001D50268D358984710BD13B50C001100CB
:10A99000012C0DD86B460622581C03F0A9FD00209F
:10A9A0006B4669461C70FFF713FF002805D003E0D3
:10A9B0000120A31E8342F3D9032016BD73B5684658
:10A9C0000E001500FFF706FF032400280DD1002E0E
:10A9D00002D06B461B7833700024A54205D06B462D
:10A9E0000622591C280003F083FD200076BDF8B52F
:10A9F00006000D00002407273300BA331B78A3425A
:10AA00000FD96B79A3420CD93800604301002B6841
:10AA1000BB31711818180722013403F069FDE4B244
:10AA2000EAE72C710020F8BD112337B5080001AC0E
:10AA300023700D0004F07EF9290082B22000FFF798
:10AA4000DFFE0023984200D0033318003EBD000013
:10AA5000012110B5044A0800FDF786FD0023984245
:10AA600000D00B33180010BD89AE0100F8B50368A3
:10AA70000700DB6C0D000C799847032384420DD846
:10AA8000002307212879DAB2904209D90A005A43F3
:10AA90002C680133125D032AF5D104231800F8BD98
:10AAA0003E000024BA3634702B79A34211D9072115
:10AAB00061432B683078591807235843BB301A007C
:10AAC000381803F015FD3378013401333370E4B2E4
:10AAD000EAE70023E2E710B50C00C97F01201F2937
:10AAE00002D8002901D1032010BDD37F2000FFF739
:10AAF00073FE0028F7D1208CFFF77AFE0028F3D0F0
:10AB0000F1E70000F8B505000400AC356B68AB60F8
:10AB1000A868002807D0C36821009847AB68002BBD
:10AB2000F4D01B69F3E72600B0363568002D05D058
:10AB30002F69280001F022FF3D00F7E72200FC21E9
:10AB400035605832137826000B40137023000A3604
:10AB500056331D709D711F222900300003F0D1FC77
:10AB6000F5772A361F222900300003F0CAFCF5775A
:10AB7000606E002804D0056901F000FF2800F8E7A6
:10AB80002500983560662868002804D0066901F021
:10AB9000F5FE3000F8E72600A43628603568002D61
:10ABA00005D02F69280001F0E9FE3D00F7E72000FD
:10ABB000356029000C226C3003F0A3FC2000084B08
:10ABC000E567A36729000C22803003F09AFC23007C
:10ABD000044A8C33903428001A602560F8BDC046C2
:10ABE00043A9010035A9010010B50400FFF78AFF51
:10ABF00003000620002B0AD1220001211800FE329A
:10AC000049425186BA34463A13705370237010BDCE
:10AC1000FE3041867047FE30408E7047F0B593B0ED
:10AC2000019000200C0001F01FF90368DB6A9847CF
:10AC3000FFF782FB06AB00280ED000221A7105AA8E
:10AC40000692082218001A730AAA9A60FFF742FCBB
:10AC5000002803D013B0F0BD1871187300272773B4
:10AC60002771019BBA331B78BB4242D907237B4330
:10AC70001A000199BB32CB18BB331B788A18029299
:10AC8000022B2ED1002506AE337BAB4223D9AB007D
:10AC90000393089BAA0099580298FFF733FC0028F9
:10ACA0001CD0B3689C46AB001900237B614402931F
:10ACB0009A000868A368D050029B01332373337B4A
:10ACC0005A1E954205D00C481B1860469B001B5825
:10ACD0000B6006AB1A730137FFB2C2E70135EDB264
:10ACE000D1E72379216802989A00013350502371EB
:10ACF000F1E70020AEE7C046FFFFFF3F70B50C0054
:10AD000009789AB00222012908D06388032908D162
:10AD1000A03B1F4D9BB20A00AB4208D910001AB0ED
:10AD200070BD203B1B499BB203228B42F6D81A4BC5
:10AD3000A18803229942F1D80AAB009312AB029387
:10AD40006A460023050013711373B8352B78002B66
:10AD500017D104AE18220021300003F0D2FB237873
:10AD6000300033702B7833726B46F3606388338224
:10AD7000A3887382FFF732FD00229042CED00332C7
:10AD8000CCE76946FFF74AFF021EE2D0C6E7C0469D
:10AD9000603F0000E03F0000FF3F0000F0B59DB0C5
:10ADA0001E006B4604001A70581C0622229D03F0F8
:10ADB0009FFB002E2ED0328802AB1A8072885A80F8
:10ADC000B2889A80F288DA800CAB04AE049314AB9C
:10ADD000B36027000023B937337133733B78002BFE
:10ADE0001ED101223B78022708A9134058000B7896
:10ADF0004E60BB430343002D1AD12000323000784F
:10AE00009343104003430B70A38D0B81E38D4B8163
:10AE1000238E17E01A4B029396239B040393D3E7E8
:10AE200031002000FFF7FAFE0028DAD01DB0F0BD97
:10AE3000A8799343104003430B702B880B816B88D8
:10AE40004B81AB8802AA68468B81FFF7DDFC0300CB
:10AE500000208342EAD00630082BE7D006D8013024
:10AE6000042BE3D0834209D10420DFE70520112B16
:10AE7000DCD0044A9342F7D0102BF5D00B20D5E755
:10AE800032006400023200007FB50400002000F0B0
:10AE9000EBFF03686D469B6998470300F3331C7012
:10AEA000114B0600009300230290019321300F4BB9
:10AEB000FF30F836EB600400A8420CD0FDF77AFBB7
:10AEC000002C08D0EB68002B03D05B682900200021
:10AED0009847EB68E36030000022002302F0E2FABA
:10AEE0002800FDF767FB7FBD51A90100ACFE010002
:10AEF000A0DF7047A4DF7047A5DF7047A6DF70476B
:10AF0000A8DF7047A9DF70470020704713B50468B9
:10AF10000093A46813000A000149A04716BDC0466B
:10AF2000FFFF000037B50800002511006A46558074
:10AF30006D46069C019322882A806A46FFF7DCFF53
:10AF40000323002802D12B882380030018003EBD74
:10AF500037B506AC25780468019500932469130081
:10AF60000A000149A0473EBDFFFF000010B503687D
:10AF7000002B01D00800984710BDF8B50400002050
:10AF80000D00160000F070FF03689B699847236866
:10AF90009F69FFF740FE330001002A002000B847F8
:10AFA000F8BDF0B5D48B02001E000023457985B0B2
:10AFB000C4329D4224D908321700083F3F88A74277
:10AFC00011D11833DB00C3180E241A8902236C44F4
:10AFD0002380036803AD00949F682B00B8470028C6
:10AFE00003D005B0F0BD0133E3E723880620022B30
:10AFF000F7D12B8800209B07F3D001233370F0E7B3
:10B000000420EEE7F0B587B000260C0069464E80BC
:10B010006E4615000CA90DAA09881278318001939B
:10B02000002A24D101004679C43196420ED9083154
:10B030000F00083F3F88AF4225D130211C329200DB
:10B04000801842680132D27F0A421ED16A46290026
:10B050002000FFF74FFF0C2854D045D8052851D0C9
:10B06000072851D0002398420AD00B2308E06A46F3
:10B0700029002000FFF73EFF0323002800D1030032
:10B08000180007B0F0BD0132CFE710210A4051424D
:10B090004A41002002AEF3600CABB360204B01329A
:10B0A0003580B270B0809C4207D100F0DDFE0368AD
:10B0B0009B699847FFF7AFFD040031002000FFF7C0
:10B0C0001DFF002382B29A42DAD0112A26D01DD861
:10B0D000082A21D06A4629002000FFF70BFF05232C
:10B0E0000028CDD0023BCBE710280DD003D8082391
:10B0F0000F28C5D0B9E70B4B984203D0D0239B0152
:10B100009842B2D10323BBE70423B9E7064B9A4226
:10B1100004D0064B9A42DDD10623B1E70523AFE701
:10B12000FFFF000002300000033000000134000087
:10B1300010B50278002A0BD10C781300002C05D131
:10B14000438A488A1B1A58424341DBB2180010BD9B
:10B150000023012AFAD10A78012AF7D101310130FE
:10B160000F3203F0B6F943424341EEE7F0B5040075
:10B1700097B008002E250B91FFF7F4F904ABED18FA
:10B1800010902A0010A90120FFF7B2FE002802D07B
:10B19000032017B0F0BD2B880B9A0A9093830B9B6A
:10B1A0000A9A1B7D934200D8BDE06379132B01D925
:10B1B0000720EEE70B9B9B690C930A9B0C9A9B0064
:10B1C0009D586B69002B07D16B8B002B04D16B1C36
:10B1D000DB7F022B00D1A1E02800FFF7C3F9002696
:10B1E00010900D960C962B0028331B78B34219D97A
:10B1F0006A6AB3009F580023180011A90B70CA187F
:10B2000001335070102BFAD1494B38004B82FFF7B5
:10B210008FFF002803D07B690C937B8B0D93013645
:10B22000F6B2E0E76179AB1CC900C43161186A1C51
:10B23000DB7FD27F089129002A310978002007910D
:10B2400029002931097806910D9905910C990491ED
:10B25000297F0391298B0291698B01916969009182
:10B2600010A9FFF7D5F9002800D091E7637907000E
:10B270001A001C3292001833A218DB005560E31844
:10B280009B88EB836379013363712B0028331B7830
:10B29000BB4243D9C2235B00E35C072B88D86A6AB0
:10B2A000BB009E580023180011A90B70CA18013367
:10B2B0005070102BFAD11E4B30004B82FFF738FF35
:10B2C0000C90002827D13000FFF74CF9C22149002B
:10B2D000625C738BC3325200A2180292327F1090CC
:10B2E0000192328B10A9009272690C98FFF738FA1C
:10B2F000002800D04CE7C2214900635C1A00583294
:10B300009200C033A2185B005660E318DB88F38319
:10B31000635C013363540137FFB2B6E70A9801302A
:10B32000C3B20A933BE7237900200133237130E74E
:10B330000129000070B50C220D000021040003F06B
:10B34000E0F800232361024B25602000E36070BD1C
:10B350006DAF0100F0B5040087B0236B6363606BD1
:10B36000002807D0C36821009847636B002BF4D0F6
:10B370001B69F3E7206B002804D0056901F0FEFA91
:10B380002800F8E72063A080E068002804D0056961
:10B3900001F0F4FA2800F8E7E060A069002804D082
:10B3A000056901F0EBFA2800F8E7666AA061002E53
:10B3B00005D03569300001F0E1FA2E00F7E701AD64
:10B3C000310066622800FFF7B5FF23002A003833FA
:10B3D00083CA83C3EB6831006364A6642800FFF767
:10B3E000A9FF23002A004C3383CA83C3EB683100D2
:10B3F000A365E6652800FFF79DFF23002A00603360
:10B4000083CA83C33000EB682667E36607B0F0BDEC
:10B4100070B50500FFF79EFF04000620002C1DD12B
:10B42000280050222100743003F06BF828006530AA
:10B4300020222100FF3003F064F8280008222100B8
:10B44000C43003F05EF828008730FF30102221005E
:10B4500003F057F8C22320005B00EC5470BD70B5B8
:10B4600004000D006368A360A068002807D0C368CB
:10B4700029009847A368002BF4D01B69F3E770BD3F
:10B4800010B5C368984710BD0B0010B51100042B10
:10B490000BD0052B13D0032B06D1836B002B03D0CD
:10B4A0000C4B3830002B07D110BDC36C002BFBD0E8
:10B4B000084B4C30002BF7D0FFF7E2FFF4E7030016
:10B4C000026E6033002AEFD0024A002AECD0180046
:10B4D000F2E7C04681810100F0B50B888FB005000E
:10B4E0000C00512B00D17BE005D8012B62D0502BF2
:10B4F0002ED00FB0F0BD522B6BD0532BF9D1CE888C
:10B5000005212B0000206A79C43300900098824204
:10B51000EFD90833180008380088B0426CD10629EA
:10B5200000D1AAE007296AD0320002293ED1A388BF
:10B530000AA90B804E80237A0B71A38BCB80E38BFF
:10B5400020340B81CC6028001430FFF788FFD0E74F
:10B5500002000023CE884179C83299420ED90832C0
:10B56000100008380088B0420AD11C339B00EB1849
:10B570005A68531CD87F3023184203D10221C0E7F8
:10B580000133EAE7A31CD97F0134E37F09020B43AF
:10B59000810602D503219C0707D40421C00604D5E7
:10B5A00003390B40594259410331D28B2800FFF730
:10B5B0006BFF9EE70C7AEB682B612869002800D1AD
:10B5C00097E7C368210098472B69002BF3D01B69CC
:10B5D000F2E7002388881A001900FFF793FC88E738
:10B5E0008B79012B05D0022B00D082E70E89072131
:10B5F00087E70E89062184E70098013085E700235C
:10B600000593A38802AA13805680E38B06AF93802C
:10B61000238C0021D3802300102222333800019391
:10B62000049302F06EFF02233B70009B1C339B00CF
:10B63000EB185A6813002A3319780023994206D070
:10B640001000D36C403002A9984702AB9B89A088B8
:10B650003900BB80FFF754FCBB88002B00D048E7C3
:10B66000A3880AA90B804E80A37A0B71E38BCB8051
:10B67000238C0B81019BCB6065E7162002AB0A226D
:10B680000021C01802F03DFFA38806AF7E803B80FA
:10B69000A38B0AAE102200213000BB8002F031FFE4
:10B6A0000123009833701C3080002D186B681A003D
:10B6B000293211780022914205D0180039002C302F
:10B6C0009B6B9847BA89B280BB89002B0BD1BA68B3
:10B6D000002A08D0B17901330B43B371BB883381A1
:10B6E000FB88F2607381A0883100FFF709FC00E756
:10B6F00002207047022070470020704700207047EA
:10B7000000487047FFFF000002207047022070478A
:10B7100002207047022070470220704702207047C5
:10B7200002207047022070470220704702207047B5
:10B7300002207047022070470023136070470020EA
:10B740007047022070470220704702207047022095
:10B75000704702207047002070470020704700208B
:10B760007047022070474160704781607047C16038
:10B7700070470161704741617047022070470220A5
:10B780007047022070470220704702207047022055
:10B790007047022070470220704702207047002047
:10B7A00070477047022070470220704770470220A0
:10B7B000704700207047704766DF704748DF70476A
:10B7C00000797047103070471030704710B503682B
:10B7D0009B6B9847FFF7F2FF10BD0000F0B597B0E4
:10B7E0000593036807AD1B680491039311002B00B8
:10B7F000060091C991C30024D36821000C220CA833
:10B80000EB602C6102F07DFE22000B4B10940F9335
:10B8100011AB1C70191901344A70102CFAD15A82DC
:10B820000193059B2A00009304990CAB3000039C04
:10B83000A04717B0F0BDC0463DB8010010B5036881
:10B84000002B01D00800984710BD0000044B10B534
:10B850001A78002A03D000221A70FEF7D3FA10BD1E
:10B86000CC22002070B5FC30446D0500002C0DD1B9
:10B87000242001F071F8064B44608361054B84601D
:10B88000C46004614461C46103606865686D70BD33
:10B89000500002002401020070B5FC30056D040068
:10B8A000002D11D1342001F057F8084B856043601A
:10B8B000074B45610361074B0562C361064BC562D7
:10B8C0008362064B20650360206D70BD800002001E
:10B8D00070000200CC000200DC000200EC0002005C
:10B8E000082370B596B002AA137106AA029202AAA2
:10B8F000137310000EAB0D0004930024FEF7EAFD55
:10B900000726A04210D02C7116B070BD3000029BEB
:10B91000604301932A680199A3001018595807221F
:10B9200002F0E6FD0134E4B202AB1B79A34205D973
:10B930006B79A342EAD82C710020E5E72C71072629
:10B94000002402AB29791B7B6118A34202D96B79D1
:10B95000994201DB2971EFE771432B685918049B69
:10B960000193019AA30098580134FEF7CFFDE4B289
:10B97000E7E710B5FEF752FD10BD10B50800110045
:10B98000FEF782FD10BD10B508001100FEF758FD4E
:10B9900010BD10B5080011001A00029BFEF7D2FC82
:10B9A00010BD00007FB503791548002B22D0154E3D
:10B9B000154C33782000002B1CD102AD2800FFF776
:10B9C000FBFE002810D16B88592B0DD12B78AA884B
:10B9D000D91F012910D800920C4A2021200003F021
:10B9E00021F90123337004E020220949200003F0EB
:10B9F000B9F9200004B070BD0092064AEDE7C046D8
:10BA000050010200902400207024002072010200E6
:10BA10006A0102008F01020070B503790400092059
:10BA2000002B1AD0FEF768FA03000520002B14D172
:10BA30002500FC35E86C00280AD1686D00280DD17E
:10BA400020001030FFF7D0F8002806D1207104E064
:10BA500003681B6A98470028EFD070BD03689B6A93
:10BA600098470028ECD0F8E770B50400E36923623A
:10BA7000206A002807D0C36821009847236A002B5A
:10BA8000F4D01B69F3E7E069002804D0056900F0F1
:10BA900075FF2800F8E7E0616060A060E060206169
:10BAA000606170BD10B5FFF7DFFF0623002800D1ED
:10BAB0000300180010BD70B504000068002804D011
:10BAC000056900F05BFF2800F8E7206070BD00000A
:10BAD00010B50400024B08C0FFF7EDFF200010BDB9
:10BAE0007000020010B50400FFF7F2FF200000F024
:10BAF00045FF200010BD70B504000068002804D088
:10BB0000056900F03BFF2800F8E7206070BD0000E9
:10BB100010B50400024B08C0FFF7EDFF200010BD78
:10BB20008000020010B50400FFF7F2FF200000F0D3
:10BB300025FF200010BD70B50400E36A2363206B6D
:10BB4000002807D0C36821009847236B002BF4D04E
:10BB50001B69F3E7E06A002804D0056900F00EFFD6
:10BB60002800F8E7E06220000830FFF7C4FF20005B
:10BB70001430FFF7A0FF206A002804D0056900F008
:10BB8000FDFE2800F8E7206270BD0000064B70B58E
:10BB9000040003604068002804D0056900F0EEFE50
:10BBA0002800F8E7200070BD84FF010010B50400F4
:10BBB000FFF7ECFF200000F0E1FE200010BD0000C8
:10BBC000064B70B5040003604068002804D0056986
:10BBD00000F0D4FE2800F8E7200070BD94FF0100BB
:10BBE00010B50400FFF7ECFF200000F0C7FE2000B6
:10BBF00010BD0000064B70B50400036040680028CB
:10BC000004D0056900F0BAFE2800F8E7200070BDF6
:10BC1000A4FF010010B50400FFF7ECFF200000F0C6
:10BC2000ADFE200010BD0000064B70B5040003609F
:10BC30004068002804D0056900F0A0FE2800F8E75D
:10BC4000200070BDCC00020010B50400FFF7ECFF2F
:10BC5000200000F093FE200010BD0000064B70B5E0
:10BC6000040003604068002804D0056900F086FEE7
:10BC70002800F8E7200070BDDC00020010B50400C9
:10BC8000FFF7ECFF200000F079FE200010BD00005F
:10BC9000064B70B5040003604068002804D00569B5
:10BCA00000F06CFE2800F8E7200070BDB4FF010032
:10BCB00010B50400FFF7ECFF200000F05FFE20004D
:10BCC00010BD0000064B70B50400036040680028FA
:10BCD00004D0056900F052FE2800F8E7200070BD8E
:10BCE0005000020010B50400FFF7ECFF200000F048
:10BCF00045FE200010BD0000064B70B50400036037
:10BD00004068002804D0056900F038FE2800F8E7F4
:10BD1000200070BD6000020010B50400FFF7ECFFCA
:10BD2000200000F02BFE200010BD0000064B70B577
:10BD3000040003604068002804D0056900F01EFE7E
:10BD40002800F8E7200070BD9000020010B5040044
:10BD5000FFF7ECFF200000F011FE200010BDF7B54A
:10BD6000037907000E001400002B11D008220021D7
:10BD7000684602F0C6FB0A256B461D713000FCF7D1
:10BD800029FAE36800906946200098472800FEBD24
:10BD9000FEF7DEF905000C20002DF8D10123082262
:10BDA0003B712900684602F0ACFBE7E770B5FC3058
:10BDB000446D0500002C0DD1242000F0CDFD064B74
:10BDC00044608361054B8460C46004614461C46164
:10BDD00003606865686D70BD5000020024010200B8
:10BDE000124B10B508330360114B04000361842328
:10BDF000104A5B00C250C018FCF7E6FB20000E4B57
:10BE0000BC302361FFF744FF2000B030FFF7F2FEA3
:10BE10002000A430FFF7D4FE20007030FFF7B6FEFC
:10BE20002000FCF715FA200010BDC046B401020046
:10BE3000C0FE010048060200C4FF010010B5040066
:10BE4000FFF7CEFF200000F099FD200010BD10B5D7
:10BE50001F220021040002F054FB0023E37710BDF1
:10BE6000004870471823002000487047182300201E
:10BE7000444AF0B506000261A022434B1A3608334B
:10BE8000036001000023C2820400320085B0037108
:10BE90008360037503833931137001329142FBD102
:10BEA000802580222000AD00D201F3773584110077
:10BEB00000933C300023FCF7D3F9230021004433E6
:10BEC00003931A002B0000256331157001328A425A
:10BED000FBD1039AFC21D577220064321380230022
:10BEE00066331D70137920000B40137123006C33EF
:10BEF0001D70264B656723670C2200217C3002F001
:10BF000000FB23002700224A8C331D609037043B3E
:10BF100000211A6038000C2202F0F3FA1D4B1E4A71
:10BF2000FB602300A4333D611A601C4A5D60DA6047
:10BF30001B4A1D619A61DD613000FFF788FF03989D
:10BF4000FFF785FF174B2000236123000930C8331A
:10BF50001D705D709D70FF3001F060FB2300313378
:10BF6000FF33DD608423104A5B00E2500122383346
:10BF70005242E25223002000FC33DD641D655D6502
:10BF800005B0F0BDC4FF0100B401020084FF010050
:10BF900043A9010035A9010094FF0100A4FF01009D
:10BFA000B4FF0100C0FE01004806020070B5002584
:10BFB0000400244B85800360234BC5608360234BC2
:10BFC00085614361224B45620362224B0563C36274
:10BFD00029003830FFF7AEF9200029004C30FFF778
:10BFE000A9F9200029006030FFF7A4F91A4B2200BC
:10BFF00023602300C432743320C39342FCD1260053
:10C000001D006536FF36280008220021083502F0A1
:10C0100078FAAE42F7D1210000228531FF3104C603
:10C02000B142FCD1C2235B00E25423002200002174
:10C0300087339732FF33FF32198002339A42FBD1A4
:10C04000200070BDA000020060000200700002002D
:10C05000800002009000020058FF010070B5FC3023
:10C06000C36C0400002B07D1CC20400000F074FC0E
:10C070000500FFF79BFFE564E06C70BD70B5FC3018
:10C08000C36C0400002B07D1CC20400000F064FCFE
:10C090000500FFF78BFFE564E06C70BD10B5054C43
:10C0A0002000FFF7E5FE044A0449200000F0EAFB07
:10C0B00010BDC0461823002000200020E1BD010073
:10C0C00001704B1C0AD001238B404360044BC360BA
:10C0D000044B0361044B4361044B83607047C046CB
:10C0E000080500500C0500501005005014050050C4
:10C0F00010B5007840B200F01BFD10BD0023C35600
:10C1000070B505000C00013304D12A220849094802
:10C1100001F03CFC002C02D0012C00D070BD0023AB
:10C12000A022EB56D205C133FF339B009C50F5E7AC
:10C13000F801020052020200F7B5A223A022DB00A0
:10C14000D205D358BE220193314B52009958002991
:10C150003FD0C1218900595800293ADA0024E0254E
:10C16000C0269C50ED00B6022A4BA700F8580028C4
:10C170002CD0294BE35C002B17D0019B0121E3401D
:10C180000B4227D02300A022C133FF339B00D205EE
:10C190009B589B039B0F032B1CD0204B1B68E34039
:10C1A0000B4217D01E4B1B689847A023DB05FF18D6
:10C1B0007A5932420AD07A591A490A407A51019A78
:10C1C000E240D3071FD57A5932437A5101341F2CEC
:10C1D000CAD1F7BD019B0122E3401342E5D1230000
:10C1E000A021C133FF339B00C9055B589B039B0F04
:10C1F000032BDAD10C4B1B68E3401342D5D0084B1C
:10C2000002211B68D0E78022795992020A43DCE7B9
:10C2100000600040B024002091240020342500203C
:10C220002C250020FFFFFCFF302500200368074A73
:10C230009950074AFC33196A002902D0002018627D
:10C240007047013A002AF6D10120F9E71C050000E9
:10C25000A186010010B50368002A03D080220220C5
:10C260009200985001221C001A62084AFC34E068CF
:10C27000002806D00020A322E060D2009B580B705B
:10C2800010BD013A002AF2D10120F9E7A186010090
:10C2900010B50B4C02680B4BA14205DC0A498160CA
:10C2A000CC214904D15010BD084CA14204DC0849FE
:10C2B00081608021C904F5E706498160CD21F9E755
:10C2C0008FD0030024050000A08601007F1A06001D
:10C2D00090D00300801A060070B504001000A0255D
:10C2E000C026C130FF30F600ED0580004651080041
:10C2F000C130FF3080004651A1252068ED00425139
:10C30000054A815019002000FFF7C2FFA023052134
:10C310002268DB00D15070BD0C050000F8B5170095
:10C32000284A050013780E00DBB2012B21D150788A
:10C33000C9B288421DD19078F9B2884219D1224CF5
:10C340006B73200000F03CFE22000023FC326F7172
:10C350002E712C609362A022D200A3501B4A3100A0
:10C36000A3500133A35028003A00194BFFF7B4FF44
:10C37000F8BD184B197801290BD15878F1B28842D1
:10C3800007D19878F9B2884203D10223124C6B731B
:10C39000D7E71178002906D10123F1B2137051704B
:10C3A000F9B29170CBE71A78002A06D101321A70DF
:10C3B000F2B25A70FAB29A70E7E7084801F01EFC30
:10C3C0000024BEE73825002000300040FC0F0000AC
:10C3D000A08601003C250020004000406A020200C7
:10C3E000036800221900FC3110B58A62A021C9003F
:10C3F0005A5006495A5001325A5005220421825699
:10C4000041568368FFF768FF10BDC046FC0F00006F
:10C41000036800211A00FC3210B5916001315961A6
:10C42000074B9168002905D000240473FFF7D8FF5B
:10C43000200010BD013B002BF3D10120F9E7C046DD
:10C44000A1860100036810B51900FC318A6A00203A
:10C45000012A08D1044C1C5988625A610238A40789
:10C4600001D40120404210BDC4040000F7B5019280
:10C47000B1221E0003684910D20099508021012288
:10C4800089005A50190000240500FC31CC601A6064
:10C49000771E019BBC420BDBD91901222800FFF754
:10C4A000D9FE002819D02800FFF79AFF3E0010E0BF
:10C4B000191900222800FFF7CDFE00280BD0280014
:10C4C000FFF7C0FF06002800FFF78AFF002E00DB01
:10C4D00026003000FEBD0134DAE7089B002BF8D0BF
:10C4E0002B68FC339A68002AFCD000229A60F0E79F
:10C4F000F8B51700B1221C000368D200491099500A
:10C500008022002592009D50012206009A60A542DB
:10C5100009DB069B002B04D03000FFF779FF0028D1
:10C5200013D120000EE0795D3000FFF77FFE002878
:10C5300009D03000FFF754FF3000FFF783FF0028D9
:10C5400000DB2800F8BD0135E1E701204042F9E7B2
:10C550000023C35670B504000D00013304D124221A
:10C560000549064801F012FA6368002D02D0E2681E
:10C57000136070BD2269FBE77B02020052020200D9
:10C5800010B598B00321684601F0D7F8022106A83B
:10C5900001F0D3F801210CA801F0CFF8102112A866
:10C5A00001F0CBF8012421006846FFF7D1FF06A86F
:10C5B0000021FFF7CDFF0CA80021FFF7C9FF2100E4
:10C5C00012A8FFF7C5FF962001F046FB6846002140
:10C5D000FFF7BEFF210006A8FFF7BAFF21000CA855
:10C5E000FFF7B6FF12A80021FFF7B2FF962001F077
:10C5F00033FBD8E770B50D000400A0B001F0AEFA2F
:10C600002B0022008021684602F0ECFB051E03DCB3
:10C6100001F0D2FA20B070BD094B0A4E1B68002B06
:10C6200004D119221821300000F0EEFA00246B46E4
:10C630003000195D013400F0A9FBA542F7D1E7E70E
:10C640005C260020B82600200FB407B504A901C954
:10C650000191FFF7CFFF03B008BC04B018470000FA
:10C66000084B10B51B68002B0AD1074C182120007D
:10C67000192200F0C9FA96212000890100F036FB4A
:10C6800010BDC0465C260020B826002010B5022848
:10C6900001DC002010BD002103380B4A83009858AC
:10C6A0009950884206D101F079FB092303600120EB
:10C6B0004042EFE703685B699847041EE9DA01F03E
:10C6C0006DFB64420460F2E74025002070B50D0068
:10C6D000140002280EDC134B1B68002B01D1FFF75E
:10C6E000BFFF2E19B54211D029780F4800F04EFB3C
:10C6F0000135F7E703380D4B8000C058002807D1FB
:10C7000001F04CFB0124092364420360200070BD4A
:10C710000368DB689847041EF8DA01F03FFB6342C8
:10C720000360F3E75C260020B826002040250020A7
:10C7300010B50C0002280CDC114B1B68002B01D13A
:10C74000FFF78EFF0F4800F013FB2070012420003C
:10C7500010BD03380C4B8000C058002806D101F0F2
:10C760001DFB0124092364420360F0E703689B6812
:10C770009847041EEBDA01F011FB63420360E6E721
:10C780005C260020B82600204025002010B501249A
:10C79000022809DD03380B4B8000C458002C05D15A
:10C7A00001F0FCFA09230360200010BD236820007B
:10C7B000DB699847041EF7DA01F0F0FA644204607E
:10C7C0000024F1E74025002010B5022807DC01F025
:10C7D000E5FA1D23036001246442200010BD0338E4
:10C7E000094B8000C058002803D101F0D7FA092373
:10C7F000F0E703681B699847041EEEDA01F0CEFAF1
:10C8000064420460E7E7C0464025002010B50228D6
:10C8100004DC802300209B014B6010BD01F0BEFAB8
:10C820000923036001204042F7E710B5012000F022
:10C830002BF800000C4910B50B681818EFF30882AC
:10C84000904205D30C220120084B40421A6010BDD3
:10C85000074A1468002C04D0064A12681219904244
:10C86000F0D208601800F2E70C200020C02600205B
:10C87000482600204C26002010B5002801D0FFF7E4
:10C880007FFEFEE70120704710B5FFF7F5FF01209E
:10C89000704710B5002102F00FF910BD30B585B01A
:10C8A000019009203A230D0002AC042201A968443A
:10C8B000237001F01DFE2000290001F095FC041EEC
:10C8C00008D001980368DB699847002802D020004F
:10C8D000FFF7DFFF200005B030BD7047704710B58F
:10C8E000FFF7FBFF10BD10B5FFF7F8FF10BD00000C
:10C8F000032210B50378040013400020012B0CD054
:10C90000834205D0E92205499200054801F03EF82E
:10C910000223012022781343237010BD6A03020012
:10C92000AA030200032210B5037804001340022B6F
:10C9300005D0EB2206499200064801F027F80322B1
:10C94000237893431A0001231343237010BDC0467C
:10C950006A030200D003020010B501F09BFD041E23
:10C9600002D1024801F04AF9200010BD4D03020037
:10C9700010B5002801D001F097FD10BD10B5FFF7EC
:10C98000F7FF10BD030004CB10B50400002A00D14E
:10C99000036022689A4204D05B220349034800F0F6
:10C9A000F5FF206810BDC046F10202003903020005
:10C9B00070B50A4C05002000FFF7E4FF002380213A
:10C9C0001800074A49009E58AE4200D198500433DF
:10C9D0008B42F8D12000FFF7D5FF70BD4026002024
:10C9E00040250020F0B587B001914349050002F0D1
:10C9F00097F9041E04D1FFF733FE200007B0F0BD05
:10CA00003E49280002F08CF9002803D1FFF728FEE8
:10CA10000124F2E73A49280002F082F9002803D104
:10CA2000FFF71EFE0224E8E7364F00243800FFF728
:10CA3000A9FF354BA600F3580093002B43D00134D7
:10CA4000402CF6D101F0AAF9182303603800FFF753
:10CA500099FF0EE0290004A800F044FF04A800F0AC
:10CA60008FFF051E08D101F099F902230360264BC0
:10CA7000F55001246442C0E704A800F06BFF0700F2
:10CA800004A8002F03D000F06FFF03902EE000F009
:10CA900055FF051EE7D0036804A89B68009300F0CB
:10CAA00040FF1A4B0199020019400B00280003A90E
:10CAB000009DA847051E19D001F070F9124B6D4278
:10CAC0000560F750D5E701230F4A5B423800B350A9
:10CAD000FFF758FF009B03932B783A2BBAD1691CC0
:10CAE000042204A801F004FD049B0393064B039960
:10CAF000A200D150033480E7170402001E04020094
:10CB00000F0402004026002040250020FFFFFEFF0A
:10CB100070477047704710B5FFF7FBFFFFF7FAFF4C
:10CB200010BD10B5FFF7F4FFFBF71CFC10BD0000B3
:10CB300070B504000D00431C04D11A2209490A48AB
:10CB400000F024FFA023A000DB05C018E0230C2187
:10CB5000DB00C258AD008A43C250C2581543C550CD
:10CB600070BDC04626040200570202000021114A8F
:10CB7000114B1165114A1188114A9950114A1178C7
:10CB8000002904D010490888A821C90058505178BC
:10CB9000002903D00C4948880C4958509278002A43
:10CBA00004D0094A9188A922D200995001221A6022
:10CBB0007047C046FCA0004000A0004010200020AC
:10CBC0004C050000502600201220002044050000E3
:10CBD000012310B50A4ADC00A4588C4207DD013B52
:10CBE000DB00D3185A680168064BCA5010BD0133E8
:10CBF000112BF0D180210268024B4905D150F5E795
:10CC00008004020024050000F7B50F0001212F4B1E
:10CC1000B9400360A02305002D48DB0516001A5813
:10CC20000A431A5080221C58120614431C50294CE7
:10CC3000185901431951195928000A430121B140DB
:10CC40001A511A598A4396211A511A5989015200C8
:10CC500052081A51FFF7BCFF002204202B681E491E
:10CC60005A506C39585018000121FC3099600190DD
:10CC70001960C2600120194940425850019802626F
:10CC800017481A500198006A0128FBD1A1206A6058
:10CC90001F22C0001A505F50A221C9005A501E51D5
:10CCA0007B1C03D003213800FFF742FF731C03D025
:10CCB00003213000FFF73CFF01220A4B29001A60D4
:10CCC0000948073201F014FCF7BDC04600200040BF
:10CCD00004050000140500006C0500000C050000B0
:10CCE0001C0500005C260020B8260020962310B505
:10CCF000DB00994202DDFFF76BFF10BD9E21026849
:10CD0000014BC902D150F8E724050000C1230E4AA7
:10CD10009B00D15810B5090603D50C49096A0029B2
:10CD200008D1D3585B0704D5084B0021DB68002BE2
:10CD300001D110BD0121064B18680028F9D0054B20
:10CD40001B689847F5E7C04600200040FC200040E3
:10CD50005826002054260020034B196043680349DD
:10CD60009B005A507047C046542600205826002089
:10CD700003681A00FC32D1680129FCD10021D1607E
:10CD8000A322D2009858C0B27047000003681A006E
:10CD9000FC32106A0128FCD100201062014AC9B29D
:10CDA000995070471C0500000848026803210A4397
:10CDB00002600749074A084B9B1A03DD043BC85829
:10CDC000D050FBDC0548804705480047240500405B
:10CDD000480902000020002090200020F1CD010031
:10CDE00009810100FEE7FEE7FEE7FEE7FEE7FEE75A
:10CDF000324910B50B78012B0FD1314B1B681B0743
:10CE00000BD1304BE0241A68F02310001840224266
:10CE100043D12D4A12681A4242D00B68DBB2012B73
:10CE20000DD1274A1268120709D1F021254A12684C
:10CE30000A40402A03D1244A12680A4238D080228C
:10CE4000A3230021D205DB00D150204B9960013192
:10CE500091601F4A996800291ED1C831C046C0465A
:10CE6000C046C046C046C046C046C046C046C04692
:10CE7000C046C046C046C04601390029EED1013A3D
:10CE8000002AE7D18021A320C905C0000A50013241
:10CE90008A609A68002AFCD010BD3028B9D0BCE75F
:10CEA0000C4A0D4B1A6080220C4B12021A60B4E738
:10CEB000C1228021D200C9058B50C0E7E00F00F0ED
:10CEC000E40F00F0E80F00F0EC0F00F0FC00004071
:10CED00088130000DFFF07C004050040186C004005
:10CEE00082B00190C046C046C046C046C046C0465B
:10CEF000C046C046C046C046C046C046C046C04602
:10CF0000019B013B0193002BECD102B07047000064
:10CF1000A023F0B5DB00C25885B001920022A02406
:10CF2000C250E023E405DB00E25801260292224AC7
:10CF30000500E2507833E15804200391E250A12328
:10CF40008022DB00D205E250E650FFF7C9FFA222A3
:10CF5000D200A3589B0F334228D0A3581324334246
:10CF600025D00120A023E0220299DB05D2009950B0
:10CF7000039978329950A023019ADB00EA5005B05A
:10CF8000F0BD0E4B0420F750FFF7AAFFA123DB00F2
:10CF9000F7500420FFF7A4FFA223DB00F3585B0047
:10CFA000DFD4013C002CECD12000DBE71324A026C9
:10CFB0000127F605F5E7C0460D0600000C05000048
:10CFC000A023E021144ADB05C90010B55A5078317E
:10CFD0005A5002000023FC32D3601362A1221E21AA
:10CFE000D20083500D4B0400C150CC210C4B49049E
:10CFF000C150A2210B4B3934FF34C9005C500A499F
:10D000001D3CFF3C5C5001219950A0230522DB0010
:10D01000C250FFF77DFF10BD0C0600000C0500009C
:10D020002405000000F00140140500000A480B49E7
:10D0300082680B4B002A08D01A6801321A6000225D
:10D040008260D222022092008850064A1B688858CB
:10D05000190A1B0618437047FC10014000100140DC
:10D0600060260020040500002F23C046C046C046AD
:10D07000C046C046C046C046C046C046C046C04680
:10D08000C046C046C046013B002BEED170477047FA
:10D09000F8B5174B174C9A68002A09D016490A6848
:10D0A00001320A6000229A60D22202219200A1502D
:10D0B0005A6C002A1AD0002780255F64D2236D02A3
:10D0C0009B00E5500D4B1B78BB420FD00C4B1E68EC
:10D0D000FFF7ACFF361ABE4208DC084B1F70C223B4
:10D0E0009B00E5504033E55000F030FBF8BDC046F2
:10D0F000FC10014000100140602600206426002042
:10D100006826002070B5124C2278002A1ED1A12179
:10D11000C425104BC9005A50C1390232FF395A5048
:10D1200044395A500C4AAD0051590C480840C021AE
:10D13000090201435151C02080210125890240008C
:10D14000115011601D60FFF78FFF257070BDC04644
:10D150006C2600200010014000E100E0FF00FFFF0E
:10D16000084B10B51B78002B01D1FFF7CBFFFFF761
:10D170005DFF054A002302F0CDFA4904C00B0843C5
:10D1800010BDC0466C26002040420F00F8B5284B69
:10D1900004001B78002B01D1FFF7B4FFFFF746FF17
:10D1A000244A002302F0B6FA4B04C00BCF0B1843FD
:10D1B000002622000023802192197B410906884223
:10D1C00005D9002C03DB0020012112184B41D903A3
:10D1D0000023540CD003184A2143801859410023DE
:10D1E000144A02F077FA154D04002B78144E002BE8
:10D1F00002D0336898421AD0FFF718FF201A02288D
:10D2000002DCFFF713FF841CA82122020D4B120A37
:10D21000C9005A502A783460002A08D101322A7095
:10D220008022F9395202FF395A5044395A50F8BD18
:10D230006C26002040420F003F420F006426002071
:10D240006826002000100140074B1A78002A09D0F8
:10D250008021C220054A49028000115040301150FF
:10D2600000221A707047C04664260020001001405A
:10D270000022024B9A605A647047C046FC1001407D
:10D2800005480168002901D0FFF701FF08B5FFF745
:10D29000FFFE08BDC046000044110140084B10B518
:10D2A0001A68002A01D11A1D1A601A1D1B689342C0
:10D2B00004D05B220349044800F068FB10BDC0465F
:10D2C00070260020F102020039030200F8B50500C3
:10D2D00004000E001700094B1022083308C528006F
:10D2E000002101F00EF9064B280063613A0031007D
:10D2F000FFF714F8034B20001C60F8BD1005020076
:10D30000A086010078260020036870B51B68040021
:10D310009847074D2B689C4204D0201D6169FEF799
:10D32000B7FF2C60236820005B68984770BDC0463B
:10D3300078260020F0B5050085B01C000AAB1F78E8
:10D34000036803911B68160098472800FFF7DCFF6D
:10D3500001235F40320023000399281D0097FFF747
:10D36000C7F806002B6828005B689847A01B441E7E
:10D37000A04105B0F0BDF0B5050085B01C000AABBA
:10D380001F78036803911B68160098472800FFF771
:10D39000BBFF01235F40320023000399281D009743
:10D3A000FFF764F806002B6828005B689847A01B0D
:10D3B000441EA04105B0F0BD10B503681B69984735
:10D3C00010BD10B503689B69984710BD10B5036880
:10D3D0009B6A984710BD012040427047112070475A
:10D3E0007047704708B4024B9C46303808BC604711
:10D3F000E3D3010008B4024B9C46303808BC6047B8
:10D40000E3D3010010B500F0A5F810BD08B4024B3D
:10D410009C46303808BC604705D4010010B500F0C8
:10D420009EF810BD08B4024B9C46303808BC6047DB
:10D430001DD4010070B504001D00049B00F0AAF883
:10D4400020002900303000F02DFB054B20001A0091
:10D45000083222601A00843328322263636370BD6D
:10D460002805020070B58268C3680400416A006A3A
:10D47000250012184B41200000F0E8F8636B2835B6
:10D48000002B04D1044A0549054800F07FFA636B7C
:10D4900028001B68984770BD0E020000B40502000A
:10D4A000F8050200D0B5040016001F0000F056FB7E
:10D4B000200000F0D3F826626762A06900F00AFA43
:10D4C00032003B0012184B41200000F0BFF800F082
:10D4D00073FBD0BD7FB5060000F040FB3500300087
:10D4E00000F0BCF86C46002328350393A5420DD00C
:10D4F0002800FBF75FF8002D08D0039B002B03D01A
:10D500005B68694628009847E36873632000FBF76F
:10D5100051F800F051FB7FBD704770477047000025
:10D5200070B50C0125000419A3690C354519002BB1
:10D5300004D1054A0549064800F028FAA3692800E5
:10D540001B68984770BDC0460E020000B40502007B
:10D55000F805020010B50430FFF70AFC10BD10B545
:10D560000C000430FFF712FC200010BD70B5040061
:10D570000D0088420CD0FBF71DF8002C08D0EB689A
:10D58000002B03D05B68290020009847EB68E3601C
:10D59000200070BDF0B587B00192194A040008322E
:10D5A00002600022174E184DC362426082608261A1
:10D5B00082620F000C3002A905950296FFF7D6FF94
:10D5C00002A8FAF7F7FF200002A91C300595029681
:10D5D000251DFFF7CBFF02A8FAF7ECFF019A3900EF
:10D5E0002800FFF711FBE16A2800FFF77FFB280006
:10D5F00022000649FFF7B0FB200007B0F0BDC0468F
:10D600001406020019D501003CFE010021D50100DD
:10D6100010B503689B68984710BD0000094B10B512
:10D6200008330022036000238260C360002303618B
:10D630004361040000F086F80349A06100F0C8F8D7
:10D64000200010BD2C06020011D6010007B5010014
:10D6500000900831806900F0FAF807BD010010B5AC
:10D660000831806900F01CF910BD000010B50400FD
:10D67000034B08330360FFF7F1FF200010BDC046E5
:10D680002C06020070B50500436B04002835002B02
:10D6900004D1054A0549064800F078F9636B280073
:10D6A0001B68984770BDC0460E020000B40502001A
:10D6B000F805020010B50400034B08330360FAF7C5
:10D6C00083FF200010BDC0464006020010B50400D4
:10D6D000FFF7F0FF2000FFF751F9200010BD000018
:10D6E0000023C35670B504000D00013304D1242279
:10D6F0000549064800F04AF96368002D02D0E26847
:10D70000136070BD2269FBE77B0202005202020037
:10D7100070B50D0004001600FEF7D2FC6B1C0BD098
:10D7200031002000FFF7DCFF01212000FEF7E6FCBE
:10D7300000212000FEF7DCFC70BD10B50022FFF7D1
:10D74000E7FF10BD004870475406020010B50248BC
:10D7500000F05AF810BDC04654060200036870B5C8
:10D7600044685B68E668A568984733000200A842F1
:10D7700003D20020012112184B41A260E36070BD6A
:10D78000F8B50600FFF7EAFF77687968002912D03C
:10D79000BA68FB68086849688B420FD801D1824299
:10D7A0000CD804000D00A41A9D41002D03D1074D93
:10D7B000801AAC4203D9E020C00500E00020BA681E
:10D7C000336880181B699847F8BDC046FFFFFF6F9C
:10D7D00070B5436804001D7C0E00002D11D1036854
:10D7E0001B68984700200021012263689860D96077
:10D7F0001D6020005D601A74FFF7B0FF2000FFF786
:10D80000BFFF63681E6070BD036810B5DB6804006D
:10D81000984763685B68002B15D02000FFF79EFFD8
:10D8200063685A68D968506888420CD803D1116877
:10D830009868814207D8D16859601B68002BE8D0EE
:10D8400090689847E5E72000FFF79AFF10BDF8B50C
:10D8500005000C0017001E0000F080F92800FFF7FB
:10D860007DFF0022069B6968A3604B6827606660A5
:10D87000002B09D1E360002A10D14C602800FFF78B
:10D880007FFF00F099F9F8BD5868B042F2D802D194
:10D890001868B842EED81A00DB68E9E7D460EDE713
:10D8A00070B505000C0000F059F96A685368A3428E
:10D8B00008D1DB6828005360FFF762FF00F07CF9B5
:10D8C00070BD1300002BF9D0DA689442F9D1E268F8
:10D8D000DA60F3E710B50400FFF740FF636898686B
:10D8E000D96810BD002310B5036043600A780400B6
:10D8F0002F2A0ED14A789A420BD0481C190020607A
:10D9000023681A782F2A06D10133236000F004FA25
:10D910006060200010BD002AF8D00133013123607F
:10D92000EEE700687047436810B5181E05D000F098
:10D930009AF9013843425841C0B210BD10B50400F5
:10D94000FFF7F1FF031E03D06268131E00D0131F00
:10D95000180010BD436810B5181E04D000F083F9FC
:10D9600043425841C0B210BD10B50400FFF7F2FFAA
:10D97000031E03D06268131E00D0131F180010BDD1
:10D980004068431E9841C0B27047000070B50D005A
:10D990001600040000F0E2F833002A0021000348DA
:10D9A000FEF752FEFEF7ECFD70BDC04670060200A9
:10D9B000002070470020704710B5036801221B69E2
:10D9C0000021984710BD002210B5036811001B69A3
:10D9D000984710BD70477047F8B50E000368050002
:10D9E000DB6C8C1898473300A34208D05F1C197871
:10D9F0002B6828005B6C9847431C06D13C002B68C1
:10DA000028001B6D9847A01BF8BD3B00ECE7F8B55C
:10DA10000E0003680500DB6C8F1834009847A7429E
:10DA200008D02B6828009B6C9847431C02D02070BC
:10DA30000134F4E72B6828001B6D9847A01BF8BD44
:10DA4000002070477047002070470020704700009A
:10DA500010B50400044B0360044B0430036000F075
:10DA600027F9200010BDC046AC060200F8060200EF
:10DA700008B4024B9C46043808BC604751DA0100E8
:10DA800010B50400FFF7E4FF2000FEF777FF200049
:10DA900010BD08B4024B9C46043808BC6047C04621
:10DAA00081DA010010B504000F4B002208C000F01D
:10DAB000DDF80E4B0E491A00643363600023083210
:10DAC00022606361200000F064F96061002803D0E7
:10DAD000FEF7DFFE200010BD00F060F90168054888
