:020000021000EC
:1080000000400020C1D20100FDD20100FFD20100DA
:108010000000000000000000000000000000000060
:1080200000000000000000000000000001D301007B
:10803000000000000000000003D3010005D3010090
:1080400007D3010007D3010059D2010007D3010073
:1080500007D301000000000045CA010007D301005A
:1080600007D3010007D30100D9D0010007D30100D5
:1080700007D3010007D3010007D3010007D3010094
:1080800007D3010099D7010007D3010007D30100EE
:1080900007D30100B58E010045A8010007D30100F8
:1080A00007D3010007D3010000000000000000001A
:1080B00000000000000000000000000000000000C0
:1080C00010B5064C2378002B07D1054B002B02D0AE
:1080D000044800E000BF0123237010BD9020002061
:1080E00000000000C0F50100044B10B5002B03D0C8
:1080F0000349044800E000BF10BDC0460000000076
:1081000094200020C0F50100164B002B00D1144B29
:108110009D46402292029A1A924600218B460F46B3
:108120001348144A121A05F082FE0F4B002B00D0A0
:1081300098470E4B002B00D09847002000210400E8
:108140000D000D48002802D00C4804F040FF05F057
:1081500013FE2000290004F09AFF04F035FFC0460A
:1081600000000800004000200000000083D0010053
:1081700090200020F0250020CFCF0100000000005B
:10818000704710B50368002B01D00800984710BD58
:1081900002000B00F0B5126889B0019203AA150025
:1081A0001E004068016889688C4692CE92C5DB68E3
:1081B0000199D36000231361E04709B0F0BD0000CE
:1081C00070B50400002521600E0045600C220830C7
:1081D000290005F02CFE094BA5616361AE420AD16E
:1081E000074D2B68002B02D104F0C0FA28602368E9
:1081F0009B00EB586360200070BDC0468381010086
:10820000D020002070B500280DD1124C2668002E19
:1082100007D11C3004F01CFF05003100FFF7D0FF30
:108220002560206870BD01260B4D2B78BFF35B8F56
:108230000A4C334201D02000F4E7280004F0D4FEB9
:108240000028F8D031002000FFF7BAFF280004F022
:10825000E5FEF0E7B0200020AC200020B420002094
:10826000436810B50400002B02D1044805F05CFD02
:1082700060680368DB68984710BDC04688EC010061
:10828000436810B50400002B02D1044805F04CFDF2
:10829000606803689B69984710BDC04688EC010080
:1082A000436810B50400002B02D1044805F03CFDE2
:1082B000606803681B6A984710BDC04688EC0100DF
:1082C000436810B50400002B02D1044805F02CFDD2
:1082D000606803685B6B984710BDC04688EC01007E
:1082E000030007B59A680830002A06D0034A002A1E
:1082F00003D0019301A95B69984707BD8181010003
:10830000704710B50800FFF77DFFFFF7E9FF10BDCC
:10831000F7B5FA26B6007143009308AB1B7804004A
:10832000080013491700019306F002F985B23000E6
:10833000258078430E4906F0FBF8009B80B2A380AD
:10834000019B6080A371032D01D804232380802327
:108350002288DB019A4200D92380032801D8042215
:10836000628062889A4200D963802000FEBDC046C8
:10837000710200007047704710B50368002B01D0F0
:108380000800984710BD10B50368002B01D0080005
:10839000984710BD10B50368984710BD002801D05C
:1083A0000B6803607047704710B50368002B01D05D
:1083B0000800984710BD10B50368002B01D00800D5
:1083C000984710BD10B50368002B01D008009847EE
:1083D00010BD10B50368002B01D00800984710BDF0
:1083E0000023C35670B504000D00013304D12422CC
:1083F0000549064805F030FC6368002D02D0E268AC
:10840000136070BD2269FBE7C6EC010014ED0100AA
:1084100010B5074B42881B685B8C9A4207D10389D1
:10842000012B04D1C36803481978FFF7D9FF10BDA9
:108430003C210020DC20002070B504000D00160057
:108440000021182205F0F3FC32002900200005F07D
:1084500019FB200070BD10B5040004F00BFE2000D5
:1084600010BDF7B501920400C07F1D00C3180F00B6
:1084700001261D2B1ADCA9193200201805F0D7FCA3
:10848000E07F32008019C0B2E0773900201805F093
:10849000CEFCE07F2A0080190026C0B2E077019967
:1084A000201805F0BBFCE37FED18E5773000FEBD3A
:1084B000F7B5089C0600152922D8012007008F4037
:1084C000254D2F421CD0F17FCD181F2D43DC711894
:1084D0002518A94210D80021C8B2834204D9555C9E
:1084E000601885700131F7E722789A182270F27FC0
:1084F0009B18F37700202EE00878C8540139E8E78C
:108500002578013DEDB2AB4208D10023D9B28D42AE
:10851000F0D9D05CE11888700133F7E7F77F0120CC
:108520007F1BFF181F2F16DCA81C241802204042B6
:10853000401B0190F07F3718BC4204D22078019F85
:10854000E0550134F6E702246442651B4019F077D8
:108550003000FFF786FFFEBDFC002000F7B50024C9
:10856000C67FA64205D905196F788F4204D1002D28
:1085700007D1FFF776FF07E0055D01356419E4B226
:10858000EFE70095FFF794FFFEBD10B50368011DEE
:10859000DB6F04009847002804D101235834227867
:1085A0001343237010BD10B50020FFF72BFEFFF71B
:1085B00067FEFFF7EAFF10BD70B506008AB00A3605
:1085C0000C0022223100050001A805F027FC6B46B3
:1085D000DA1C012301A819001470FFF7BFFF041E65
:1085E0000DD12A002B6834329B6F01A928009847CF
:1085F000041E04D1222201A9300005F00FFC200046
:108600000AB070BDF0B505000E0017008DB00A3538
:1086100022222900040003A8019305F0FFFB31008A
:10862000019B3A0003A8FFF799FF061E0DD1220017
:10863000236834329B6F03A920009847061E04D19B
:10864000222203A9280005F0E9FB30000DB0F0BD9F
:1086500010B5002204000270431C11341A7001335B
:10866000A342FBD1418210BD10B504000B7810224B
:1086700003704B8A01314382013005F0CFFB2000AB
:1086800010BD10B50C00FFF70BFE036821001B683E
:10869000984710BDF0B5012600248BB03C4F08ADC3
:1086A0002E70330000962A001C21380005F0CEF809
:1086B00000942A0002231C21380005F0E8F82A78EB
:1086C0006B7812029B181BB29B11039303232A00A1
:1086D0002B701C2100963300380005F0B7F8009489
:1086E0002A0002231C21380005F0D1F82A786B7883
:1086F00012029B181BB29B11049305232A002B70B6
:108700001C2100963300380005F0A0F800942A00E0
:108710001C210223380005F0BAF86B782A780E2560
:1087200012029B181B4E1BB29B113768059304ABBA
:10873000ED18039B38682B80FFF7B2FD0368798C36
:1087400000942A00DF680223B8473568049B07AF0E
:1087500028683B80FFF7A4FD7635036829880094DC
:108760003A00DD680223A84735680A2604ABF618EC
:10877000059B28683380FFF793FDCA350368298875
:108780000094DC6832000223A0470BB0F0BDC04665
:1087900024210020D8200020F0B5012600248BB031
:1087A0003C4F08AD2E70330000962A003A21380065
:1087B00005F04CF800942A0002233A21380005F015
:1087C00066F82A786B7812029B181BB29B110393F0
:1087D00003232A002B703A2100963300380005F05D
:1087E00035F800942A0002233A21380005F04FF8AA
:1087F0002A786B7812029B181BB29B1104930523F5
:108800002A002B703A2100963300380005F01EF83C
:1088100000942A003A210223380005F038F86B78DA
:108820002A780E2512029B181B4E1BB29B1137682B
:10883000059304ABED18039B38682B80FFF730FDE0
:108840000368798C00942A00DF680223B8473568F2
:10885000049B07AF28683B80FFF722FD763503684D
:10886000298800943A00DD680223A84735680A2663
:1088700004ABF618059B28683380FFF711FDCA3555
:10888000036829880094DC6832000223A0470BB0FB
:10889000F0BDC04624210020D4200020002310B5C4
:1088A0000B4CE356013304D12C220A490A4805F047
:1088B000D3F9636920001968636819404B42594134
:1088C000FFF78EFDFFF7E6FEFFF766FF10BDC0461F
:1088D000F4200020C6EC010014ED0100C36810B5BF
:1088E0000400002B01D09B689847200010BD0000B9
:1088F00010B50400064B036005F022F82000283074
:10890000FFF7ECFF200005F06BF8200010BDC0461B
:1089100030F4010010B50400FFF7EAFF200004F076
:10892000A9FB200010BDCB6870B504000D00002B22
:1089300001D05B689847EB682000E36070BD0000E1
:10894000F0B52B4B8DB007AC02AD0293294B29003B
:108950002000EB60FFF7E7FF274E3700283738008D
:10896000FFF7BCFF21003800FFF7DDFF0023234A9B
:10897000300004F0CDFF2000FFF7B0FF2800FFF724
:10898000ADFF0020FFF73EFC00210600082203A8EF
:1089900005F04DFA1A4B2A000293230083CA83C3C1
:1089A000184B2100E360002330002361FFF7F0FB48
:1089B0003000FFF755FC0028FAD095235B002B8090
:1089C0000023114F00932A0002333A21380004F0AB
:1089D0003DFF88235B0023800023220000931C219D
:1089E0000233380004F032FF3000FFF769FCFBE788
:1089F0009D880100ACEC01004021002040420F00A6
:108A0000D98B0100A98301002421002070B5040046
:108A100015001E00FFF728FE144B6561A3610223B9
:108A200000253343621C2577E583D3770122A31CFD
:108A3000DA77049B0C26636223002000059A283312
:108A40005D709D7029001A702C30320005F0EFF92E
:108A50002000074BE563A36332002900403005F096
:108A6000E6F9044B25652000E36470BD02000200B6
:108A70008783010079830100F0B50E2797B002AB20
:108A8000FF180300002506000EAC02C32000224997
:108A90003A800293FFF7DCFD3A002B00210001959C
:108AA00000950298FFF7B2FF33001C4958332000AD
:108AB0000393FFF7CDFD3A002B00210001950095AF
:108AC0000398FFF7A3FF33001549AC33200004934C
:108AD000FFF7BEFD3A002B00210001950095049898
:108AE000FFF794FF029B0F490693039B09A8079386
:108AF000049B06AF0893FFF7ABFD09A92000FFF721
:108B0000B3FD0323210030682375A761A583FFF718
:108B1000B8FD300017B0F0BD13B0000014B0000075
:108B200015B0000012B00000F0B50E2797B002ABF0
:108B3000FF180300002506000EAC02C320002249E6
:108B40003A800293FFF784FD3A002B002100019543
:108B500000950298FFF75AFF33001C495833200054
:108B60000393FFF775FD3A002B0021000195009556
:108B70000398FFF74BFF33001549AC3320000493F3
:108B8000FFF766FD3A002B0021000195009504983F
:108B9000FFF73CFF029B0F490693039B09A807932D
:108BA000049B06AF0893FFF753FD09A92000FFF7C8
:108BB0005BFD0323210030682375A761A583FFF7C0
:108BC00060FD300017B0F0BD13A0000014A000003D
:108BD00015A0000012A00000F0B5037993B0002B9F
:108BE00000D0FAE005682B680093002B00D0F4E079
:108BF0002800FFF745FB0822009901900BA805F01B
:108C000016F9142004F024FA784B0AAC0A932200D7
:108C10000300C2CAC2C3764B019EC360009BA43648
:108C200003613368002B00D0D9E030602800FFF7E3
:108C300037FB0822002100900BA805F0F8F814205B
:108C400004F006FA6B4B22000A930300C2CAC2C3A7
:108C5000694BC36000230361009B9B69002B00D01C
:108C6000BFE0009B98612800FFF71AFB06000C226A
:108C70000021200005F0DBF833683000DB699847FD
:108C8000002810D0142004F0E3F95C4B0A93030091
:108C900086CC86C35A4BC36000230361736A002BE2
:108CA00000D0A0E070625820002704F0D1F902AB98
:108CB000DF71030004000AAE20C352493000009364
:108CC000FFF7C6FC31000098FFF7CEFC01210A2215
:108CD000200002AB0733A3614B4B3030E361631CD0
:108CE000D977631D6784DA77A31DD9772633A76206
:108CF0000C221F705F709F70390005F098F82000FB
:108D0000424B0C22E36327643900443005F08FF8AE
:108D1000A0213F4B67652365009B090205A80493CA
:108D2000FFF796FC05AB19003000FFF79DFC012111
:108D300004AB317520683100B361B783FFF7A1FC44
:108D40008020344B40001C6004F082F93A00290076
:108D50000400FFF791FE80202F4B40001C6004F0C0
:108D600077F904003A002900FFF7DEFE2B4B2800BC
:108D70001C60FFF785FA0621FFF71EFC2800FFF7AD
:108D80007FFA0623264A0321FFF73CFC2800FFF761
:108D900077FA0723234A0921FFF734FC2800FFF75D
:108DA0006FFA07712800FFF76BFA0368FA269B68D1
:108DB00004009847B60003003000B34203D923688B
:108DC00020009B6898471849704305F0B1FBE0808C
:108DD0002800FFF755FAFFF7D8FB13B0F0BD036189
:108DE00023E703613DE703615CE7C046A785010017
:108DF000D383010011840100B78301007783010050
:108E0000C583010001A0000001000100878301006B
:108E1000798301003C210020D8200020D4200020AC
:108E2000C0EC0100B8EC01007102000070B5002632
:108E3000002204211248FFF7FFFA00220D211148F9
:108E4000FFF7FAFA00220E210F48FFF7F5FA0F4C50
:108E5000200004F09DFD0E4D0E4B66632A000E4966
:108E60002000236004F0AEF80C4C32001E212000DC
:108E700004F0B8FC2A000A49200004F0A3F870BDF1
:108E80000C210020F4200020DC20002040210020C4
:108E90000020002030F40100F1880100242100208E
:108EA000758301002EDF704732DF704733DF704774
:108EB0004CDF70470120054B10B51A7850401870F0
:108EC000034B1B68002B00D0984710BD7C2100206D
:108ED000782100200C4B70B5050015200C001A609D
:108EE000FFF7E2FF00280ED129001530FFF7DEFF63
:108EF000002808D11530FFF7D5FF002803D1210045
:108F00000330FFF7D5FF70BD7821002010B5074C66
:108F1000200004F03DFD064B064A2360002306496D
:108F20006363200004F04EF810BDC046802100208D
:108F300030F4010000200020F18801007FDF70473D
:108F400082DF7047A7DF7047A9DF7047AADF70474D
:108F5000002070470020704700207047F7B50400DC
:108F60000E006A468178204801F096FA00283AD12E
:108F70000C2362781D4F5A431D4B9B189B7A5B064E
:108F800005D4022E03D01B4F012E00D01A4F1C25F2
:108F9000A3781A496B432A00C91868460023B847CA
:108FA00000281ED1022E1ED00C226178104B4A439D
:108FB0009B189A7A4030694382439A72104B2A0078
:108FC000591868462B00B8470C23227821005A43D1
:108FD0000C4B68469B189B7A0B4A9B009B58984702
:108FE00001E0022EF0D1F7BD442200205DA5010072
:108FF000E0210020E5A40100518F01000C22002097
:10900000C4210020B82100204CED0100F7B5182242
:109010000190437828485A4381184C68274F002C08
:1090200030D00C2159437918897A4DB2002D28DAB5
:10903000490626D41500A6B20835145845190C2245
:109040005343FB181889320023002900FFF77CFFE7
:109050000B281AD10C22019B29005B785343FB1883
:10906000188932000123FFF76FFF0C21019B144A7E
:109070005B784B43FF183889FFF764FF00280AD15B
:10908000FEBD002426002500D9E7002800D00D48A9
:10909000012CF5D1E9E702220B4BC318934308D00A
:1090A000082806D0113843425841064B4042184028
:1090B000E6E70448E4E7C046EC210020E021002078
:1090C000FFFF000041800000FECFFFFF10B5FFF75B
:1090D0009DFF10BDF0B589B002AB9D1D0E230C277E
:1090E000019000912B804B78224A7B43D31818893A
:1090F0002A00032304A9FFF729FF00281AD1182604
:10910000009B1D4C58782A8870430830201804A909
:1091100004F075FE009B5B7800280ED15F43154A72
:10912000D7190222B97A114004D173433200E018F2
:1091300004F07DFE002009B0F0BD5E43A619726800
:109140000E4F002A00D10E4F182603227343E2501F
:109150002A88E11808334A60E01804A904F05EFE8A
:10916000009B320059780198714338236118B84741
:10917000E0E7C046E0210020EC2100205DA50100D1
:10918000E5A4010010B5FFF7A5FF10BDF8B518253F
:1091900007004878094C68430E00201838232A003D
:1091A000390001F017FA002806D173785D4364197D
:1091B0006368013300D16060F8BDC046EC21002037
:1091C00010B5FFF7E3FF10BD002070470020704787
:1091D000002070470020704770B51C2545430600ED
:1091E00028000D4C1130201806226419002104F0CB
:1091F0001EFE10220021200004F019FEFF2323741C
:10920000A376013BFF3B23830233B340034A11683B
:109210009943116070BDC0460C2200200822002036
:1092200037B581B205006A46074801F035F9041EDA
:1092300008D15421684601F019FA041E02D1280011
:10924000FFF7CAFF20003EBD44220020F0B51C00FD
:10925000454B93B01B68070000910192002B41D051
:10926000189B542B3ED80021404B06AE0393189B0D
:1092700004AA3F4831700B940A9301F00DF9051EC2
:1092800006D1082204A9380004F0B9FD00280ED048
:1092900004AA0121364801F0FFF8002809D108226C
:1092A00004A9380004F0ABFD002802D1012503AB6E
:1092B0009D7003ADA978FF2914D0009B032B15D115
:1092C000189A06AB542A0FD1343A1A70032219782F
:1092D0000A431A7009AB0793234B019A1B6806A92E
:1092E0002800984713B0F0BD4022EEE7214BE31A67
:1092F000372B16D82048019A0368002A03D101327F
:109300008A401342EED001228A4093432022036018
:1093100006AB1A70009A06AB1978022A21D10122F5
:10932000D6E7164BE31A1B2B08D8202333700023F3
:109330006B700CAB0B9318230A93EBE71048241ABD
:10934000172CCFD83023337000236B700133EB70B0
:109350000C4B997A02231940DCD1182204F067FDE6
:10936000D8E70222B4E7C046B821002000FFFFFF83
:10937000442200200C22002008220020C4210020CA
:10938000EC210020E0210020F0B5050085B0002888
:109390005CD000242E4B01261C605C729C72FF2363
:1093A0002C485B427642438121000722068104F06B
:1093B0003EFD21001822284804F039FD2000FFF767
:1093C0000BFF264C01202670FFF706FFFF2363707A
:1093D000234B244C0193244B21006846009300F05A
:1093E000FFFF002827D10127204E2B783770002B54
:1093F00023D1010002AA200001F04EF8002818D164
:109400001B4D03001C2202A9280001F0E3F80028EC
:109410000FD102AA3900200001F03EF8002808D13F
:109420001C3503001C2202A9280001F0D3F80028F3
:1094300001D00023337005B0F0BD6B469988DB88FE
:109440002000594389B201F011F9F4E70948F2E725
:10945000B8210020E0210020EC210020042200207F
:1094600054000200442200204D92010006220020F8
:109470000C2200200E800000F8B5174B06001B7868
:109480000F00002B22D0002822D0002920D00B680A
:10949000002B1DD0114D2C68002C1BD1280005314C
:1094A00008C0052204F0BAFC0121022204203B7905
:1094B000AB722B7A8B43134383432B72EB791943A3
:1094C0000A4382432000EA713470F8BD0448FCE787
:1094D0000448FAE70448F8E706220020B8210020F3
:1094E000088000000E80000004800000154B1B78EF
:1094F000002B22D000281ED000291CD00378002B7E
:109500001BD1114B1B68002B17D04278002A16D1B3
:109510000E4B9B7A012B12D02420184003D001233C
:1095200010000B7070475BB2002B02DA02230B7045
:10953000F8E70870F6E70648F4E70648F2E7064859
:10954000F0E7C04606220020B8210020E0210020DC
:109550000E8000000880000010800000344BF7B53A
:109560001B78002B61D000285DD000295BD00C68EF
:10957000002C58D08E68002E55D00378002B54D183
:109580002C4B1B68002B50D02B4B987ADF7A022390
:1095900018400190002F23D00B7B002B13D1002209
:1095A0000D79954206D0254DA87E800702D410354E
:1095B00025600132012F18D10198002815D0002014
:1095C0000A710B73FEBD1D4D0122AB7E9C466046A9
:1095D00000231042E3D13560194D2B701300DEE7F4
:1095E000019B002BD8D03B003A00087B98420CD955
:1095F0001248050036352F7801252F4205D19F00EE
:109600001C30B8510E48C5545B1908799042D6D920
:109610000A48050036352D78AD07D0D495002C309A
:1096200028510132CBE70748CCE70748CAE7C046D4
:1096300006220020B8210020E02100200C2200207A
:10964000042200200E800000088000000F4B10B59F
:109650001B78002B18D0002814D00078002813D1D4
:109660000B4B1B68002B0FD00A4CA37EFF2B01D0A5
:10967000FFF7D6FD36342378FF2B02D00120FFF709
:10968000CFFD10BD0448FCE70448FAE7062200209D
:10969000B82100200C2200200E800000088000006D
:1096A00013B5040081786A460B4800F0F5FE0028E7
:1096B00010D11C226378094853436946C01813002F
:1096C00000F088FF064B074A9B7A21009B009B58BD
:1096D0006846984713BDC04644220020C42100209C
:1096E000B82100203CED0100FF23F0B58FB00393BB
:1096F000C04B05001B78002B3ED0BF4B1B6801936D
:10970000002B39D0031D06932A2302AA9382BB4B58
:10971000BB4C04930388A27A102B29D08188900730
:1097200007D5B848814200D13DE12089884200D167
:1097300039E1172B00D1D3E000D93AE1132B63D0E4
:10974000142B3FD0112B17D1022311009943A17282
:1097500004AD12072ED54BB2002B03DA00212800EE
:10976000FFF7FCFB1023A372023302AA137317E066
:109770000126324200D053E10FB0F0BDA24A5B088F
:10978000D35CFF2B00D003930822A17A039B0A43EA
:10979000DBB2A272E37202AA04A89372FFF780FF01
:1097A000002472E02A8B974B9A4200D063E13E007E
:1097B0000396E9E7A878FF28D4D0FFF70DFDFF2333
:1097C000AB70CFE7E37A914EFF2B10D1EB89318B51
:1097D000994217D0B18E994209D101230821DBB2F9
:1097E0000A4304A8E372A2728370FFF759FFE37A79
:1097F0008749FF2B00D10021A88800233200FFF702
:109800009FFBB9E70023E9E7132302A90B730F3B82
:109810001A43E37AA2727D4EFF2B53D1B37EFF2B06
:1098200007D0330036331B780127FF2B02D0794C49
:1098300015E000271C20784323783018022B3ED0F7
:10984000FD23103083720722210004F0E7FA03ABF6
:109850001F70039B04AADBB29370E3720024002103
:10986000674B0B91DA7A1C235343F618684B0C961E
:109870000893614B0D9109910A911A1DA88808ABB4
:10988000FFF75CFB002800D076E75B4B22001B68EB
:1098900005A904A8984702AB1B7B122B00D06BE7ED
:1098A0005748837A012B00D166E701235B4203818D
:1098B000FE3B43810722002104F0B9FA5CE7FE2356
:1098C0008376C4E71623544802AA137300210E229C
:1098D000083004F0ACFA4023A27A1343A372BDE728
:1098E0000126454B44495B7A1420B3434B72042351
:1098F00043499A4302AC8A722073A879002804D0A5
:10990000C87AFFF78DFCAC79BFE7E879184200D13F
:1099100046E704ACA078FF2800D141E708231A43AA
:10992000EB7A8A729B0706D51C224243374B9B1861
:109930009A7EB2439A76CB7AFF2B00D130E71C2374
:109940004343324D0A78ED18022A0DD02800072231
:10995000103004F063FA0222AB7E9343AB76012110
:109960002000FFF7FBFA1BE7294B01225B8A2B83C0
:10997000AB7EF2E780235B421A43A272953302AAC0
:1099800013731D4B254A9B7A04A89B009B5898474C
:1099900006E7194B214A9B7A04A89B009B589847DD
:1099A000EAE61323E1E6E07A04A988700020487013
:1099B000BFE61C2BF5D0522BEBD0182B00D0DBE6EA
:1099C000AB79112BD6D11307D4D513480E22002121
:1099D000083004F02CFA162302AA1373A27A4A3331
:1099E0001343A372044B5A7A02231343024A53725D
:1099F000D6E6C04606220020B821002000FFFFFF67
:109A0000E0210020FFFF0000042200200C220020A3
:109A1000C421002043800000EC2100202CED010037
:109A2000112302AA1373002353728388871D238195
:109A300002230722A3723900200004F0EFF92B7DE6
:109A4000334200D09AE60E4D002F00D1AAE628003E
:109A500007221030390004F0D2F9002801D10600A5
:109A6000A6E6280007222C30390004F0C8F90028A7
:109A700000D095E69CE6AA8E9A4200D090E697E642
:109A80000C22002030B5002913D00A78002A12D108
:109A90000A4B1B68002B0ED0FF23094C8B702589C5
:109AA000FA3B854203D14A70E37A8B7013001800A9
:109AB00030BD044BFBE7044BF9E7C046B82100205A
:109AC000E02100200E800000088000004DDF70477C
:109AD00030B500230D0014008DB06946C21AD27B48
:109AE0005A540133102BF8D100210D2204A804F0A0
:109AF0009EF96A462B786846D3776B789377AB7874
:109B00005377FFF7E3FF2F236B441B7823702E233B
:109B10006B441B7863702D236B441B78A3700DB0CE
:109B200030BD30B50378040085B00D000020022B55
:109B300016D1611C032201A804F070F9211D032233
:109B400003A804F06BF902AA03A92800FFF7C0FFDD
:109B5000032202A901A804F052F943425841C0B2BD
:109B600005B030BD064B10B5586980235B05421C1B
:109B700004D0196989B204F0DBFC10BD5869FCE718
:109B80000010001029DF704728DF7047034B10B525
:109B90001B78034A9B009B58984710BDA5220020C4
:109BA0005CED01000B0037B50C24020018009D6825
:109BB00009786C43044D08302D680095034D1B69EE
:109BC0006459A04737BDC0464C22002050220020D7
:109BD00080225205116914220E4B10B5187889B2F3
:109BE00042439B181A69501EDA881B898018C018D6
:109BF00004F09EFC084B1A680123824207D300231D
:109C0000824204D1054B1B6858424341DBB2180025
:109C100010BDC0465C22002088220020A82200201F
:109C2000082310B5034A116899431160FFF7AEFF8E
:109C300010BDC0468C220020094910B50A681307E0
:109C40000AD4930702D5012313430B600222054B6C
:109C50001A70FFF79BFF10BDFFF7E2FFFBE7C0465E
:109C60008C220020A5220020064B10B51B681B0784
:109C700005D40122044B1A70FFF788FF10BDFFF7CF
:109C8000CFFFFBE78C220020A522002010B5002882
:109C900006D0112805D10823094A11680B43136027
:109CA00010BD1423074A1178594304315118FFF7A6
:109CB00079FF0422044B1A7000F096F8F0E7C046D2
:109CC0008C2200205C220020A422002010B5FFF787
:109CD00059FFFFF7DBFF10BD70B514248025114B31
:109CE0006D051A78104E54431C192B69216920897F
:109CF000E2889BB2401861699A420DD92C69A4B2DE
:109D0000141B2A69091992B292082018FFF7DEFF86
:109D10002B699BB2336070BD9208FFF7D7FFE388D1
:109D2000F8E7C0465C2200209C22002070B5802508
:109D3000094B6D052A691B6894B2013B5C43FFF730
:109D400011FF2B69411E9BB25943044B20001A6836
:109D5000FFF7BCFF70BDC046882200209022002083
:109D6000142270B580260E4B760519784A439B184D
:109D70001A89DC881B69A4183169E418200089B2AB
:109D800004F05CFC0D00FFF7EDFE3369411E9BB251
:109D90005943044B49191A682000FFF797FF70BD1B
:109DA0005C220020A822002010B5FFF7DBFE8022F5
:109DB000074952051369146909681269A4B261431D
:109DC00092B2441E98B292086043FFF77FFF10BD25
:109DD0008822002010B5034B1868FFF7D5FEFFF767
:109DE00055FF10BD88220020F0B52B4B85B01878A8
:109DF00003280ED804F092FB020F124D0023274ACD
:109E00001360274A1360274B5B78002B01D000F0CA
:109E1000F5F805B0F0BDFFF75FFFFAE7224C142517
:109E20002368802701930123019A7F059A431D4BE4
:109E3000226002921A78396955435D192B6989B2FB
:109E40001800039304F074FB184B06001860039B82
:109E50003969581EEB8889B2C01804F069FB864244
:109E600010D10223029A13432360114B1A68114B3D
:109E7000002A0CD121680232114208D11A70FFF772
:109E800085FEC6E70323019A9A431300ECE70022FC
:109E9000F4E7FFF79FFFBCE7A4220020A0220020E8
:109EA0009C2200205C2200208C220020882200209E
:109EB00090220020A522002014230C20F0B580253C
:109EC000484A85B011786D054B43D318DF68464A80
:109ED000784312181489508952686043821829699E
:109EE0001C890292DA881E6913199B1901930023B9
:109EF00003923E4A89B21360300004F09FFB2A00AF
:109F0000002918D12B6903999BB2994205D0029B75
:109F100001998B424ED1002C58D11169300089B281
:109F200004F006FB324B18600323324A1370FFF72C
:109F30005BFF05B0F0BD022FEFD02969A01989B2EF
:109F400004F07CFB2C4B89081960019A029B29695B
:109F5000934220D089B2019804F070FB00291AD0F6
:109F600080246B4664052169188989B29F8804F0B2
:109F7000DFFA26690500B1B2380004F0D9FAADB2B3
:109F800080B2854209D16B466A461B8992889B1A2A
:109F9000164A9B0813600223C7E72369216938002A
:109FA00089B29CB204F04AFB89B2641A0F4BA40830
:109FB0001C60F0E7022FB0D02969A01989B204F023
:109FC0003DFB0D4B890819602969C3E7022FA4D016
:109FD0002969A01989B204F031FB074B890819607F
:109FE0002B69D8E75C22002050220020A822002004
:109FF00088220020A42200209022002014220D4B51
:10A0000010B519784A439B18D9880B4A1B791160FF
:10A01000DAB2012A05D0002A02D0033B012B05D970
:10A0200010BD064B1A70FFF7DFFEF9E7FFF744FF9C
:10A03000F6E7C0465C2200204C220020A42200202B
:10A04000F7B5124E0193757808AC27880424022DC9
:10A0500019D034786419012C00DD023C14235C43D0
:10A0600034196261220020710C3209C909C2019BB6
:10A070002781E3800024064B01351B787570A342CD
:10A0800001D1FFF7BBFF2000FEBDC0465C220020CF
:10A09000A422002070B51424114D002029786143BA
:10A0A00004316918FFF77EFD230000220120297882
:10A0B0004B43EB181A71DA80D8601A615A611A8121
:10A0C0006B780918013BC9B26B70022905D0297061
:10A0D000044B1A70FFF788FE70BD2A70F8E7C0467F
:10A0E0005C220020A42200201422084B10B519780D
:10A0F0004A439B181B79042B02D0FFF7CBFF10BDFE
:10A100000122034B1A70FFF76FFEF8E75C22002074
:10A11000A4220020F8B508241E4E37683C4035D1F3
:10A1200080235B0519691C4B1D68002D1BD0142270
:10A130001A4B89B2187842439B181A69501EDA8864
:10A140001B898018C01804F0F3F9154B1B6898425E
:10A1500009D1144B1C6001231F43134B37601C7043
:10A16000FFF714FDF8BDFFF733FD002806D00022ED
:10A170000C4B1A600C4B02321A70F1E7002D02D022
:10A18000094B0322F8E7FFF7AFFFEBE7FFF748FDC6
:10A19000E8E7C0468C220020A82200205C22002094
:10A1A0008822002090220020A5220020054B10B517
:10A1B0001B681B0702D4FFF797FF10BDFFF730FDA8
:10A1C000FBE7C0468C22002070B5174D2C68230792
:10A1D00027D4164A136801331360154B1B68002BF4
:10A1E00005D00422134B1A70FFF7D0FC70BDFFF7A7
:10A1F000EFFC002802D00F4B0222F4E70E4B1B6845
:10A20000002B0BD0012321000A4A194003D123431C
:10A210002B601170E8E703231370E5E7FFF764FF95
:10A22000E4E7FFF7FDFCE1E78C2200208822002014
:10A2300090220020A5220020A82200201E4B10B54D
:10A240001B78022B30D0032B19D0012B13D10821FE
:10A250001A4A13680B4222D11423194A11784B432E
:10A26000D218184B1968D3885B1A9BB2D380002B85
:10A2700002D1FFF70FFF10BDFFF72EFDFBE708210E
:10A280000E4A13680B420AD10F4A13680133136058
:10A29000FFF79EFC002804D1FFF726FFEBE78B4376
:10A2A0001360FFF7A1FDE6E7084B094A1B789B0006
:10A2B0009B589847DFE7C046A42200208C2200204C
:10A2C0005C2200209C22002088220020A522002061
:10A2D00070ED010010B5FFF745FC802252051369AF
:10A2E0001169421E98B2504389B204F021F9FFF778
:10A2F0004BFCFFF7CBFC10BD70B5154C0425227844
:10A300001300AB4303D002281FD0032800D070BD38
:10A31000104B1B681B0718D40F490B6801330B60E7
:10A32000032B07D0022A02D0FFF75EFDEFE7FFF70D
:10A330002DFCECE71423094A0D2011785943043110
:10A340005118FFF72FFC2570EEE7FFF777FFDEE7E8
:10A35000A42200208C220020A02200205C220020C9
:10A3600010B501220024154B1C801C71DC80DA60C2
:10A370001C615C611C811C765C831A625C629C625D
:10A380009C830F4B1C80FFF7EDFB80235B051B6953
:10A39000821E98B2504304220A4B18600A4B2000D8
:10A3A0001C600A4B1C609C60094B1C70094B1C60B4
:10A3B000094B1C60094B1A6010BDC0465C2200208E
:10A3C0009422002098220020882200205022002081
:10A3D000A4220020A02200209C2200208C22002009
:10A3E000294BF7B51B6804000E0008205B070FD54A
:10A3F0000630002C0CD000290AD02368002B07D08F
:10A4000080277F053A69A38892B2934201D9072039
:10A41000FEBD0F2BFBD9E288002AF8D053431B491D
:10A420000D685B190193FFF79DFB3B69421E98B2D3
:10A430005043019B8342EAD8A2889307E7D1144B8B
:10A4400004201F88012FE3D00C237B433760756005
:10A4500010482668C1181E5080234D600A81E0888C
:10A460005B05488150431969013889B21C6904F0C1
:10A47000E9F8A4B201304443044B65191D60044B54
:10A4800001371F800020C3E78C2200209822002083
:10A490009422002050220020104B30B51C68082365
:10A4A000640717D50633002814D0002A12D0036899
:10A4B000002B11D10A4D2C68002C0DD02C8940683E
:10A4C000614309186889444368682418A14203D28B
:10A4D00013605160180030BD0723FBE78C22002079
:10A4E00050220020F7B505001A48046808206407C8
:10A4F0002FD5063000292CD0002D2AD02C68073803
:10A50000002C26D114488446644624680720002C79
:10A510001FD0604606894489406874436F682418D8
:10A520000720A74215D2002A13D0964211D3D4187F
:10A53000A6420EDB0324093021420AD1234208D16E
:10A54000274206D100930F3813000A002900FFF7B5
:10A5500077FDFEBD8C22002050220020F7B50500BB
:10A560001A480468082064072FD5063000292CD02B
:10A57000002D2AD02C680738002C26D11448844698
:10A58000644624680720002C1FD060460689448951
:10A59000406874436F6824180720A74215D2002A28
:10A5A00013D0964211D3D418A6420EDB03240930EF
:10A5B00021420AD1234208D1274206D100930C3808
:10A5C00013000A002900FFF73BFDFEBD8C2200208E
:10A5D00050220020F0B51700224A85B01268029080
:10A5E0000D009C460824530734D50634002931D089
:10A5F00000282FD00C68002C2FD11B4E3268002A67
:10A600002BD030897289736842434968D2189142CD
:10A6100023D2002F21D0B8421FD36346FA189042AC
:10A620001BDB0322029B134219D16346134216D14E
:10A630000A40039213D161443A00029803F0EEFB02
:10A640000C232A68009753430221F658039A029B71
:10A650002800B047200005B0F0BD0724FAE7102419
:10A66000F8E7C0468C22002050220020F0B51E4B97
:10A6700005001B6885B00E0008205B0732D5063048
:10A68000002D2FD02B680738002B2BD1174A1368C9
:10A69000002B27D01789536852896C687A43D218E7
:10A6A000039294421ED20930A2071BD1E01A39004E
:10A6B00003F0C4FF0720002914D13900300003F053
:10A6C000BDFF89B2072000290CD1002E0AD0039BC0
:10A6D0003419A34206D30022330000922900043823
:10A6E000FFF7AEFC05B0F0BD8C2200205022002008
:10A6F0002EDF704751DF704710DF704711DF704762
:10A7000061DF704710B50800110000F0F9F910BDC5
:10A71000F0B5254B85B01B78DBB20093002B18D029
:10A72000224E234F33685A425A41D2B201923A68BC
:10A73000002A14D1009C002B0BD021E003983B6829
:10A7400098472C0019E028003368984729E0002C2E
:10A7500005D005B0F0BD002CFBD1009C019403A8EE
:10A76000FFF7C8FF009C0500052806D00028E5D0AB
:10A770000022110000F0C6F90024019B002BE6D155
:10A780000C4B03A91B880B800B4B1D682800FFF79F
:10A79000B7FF0528DFD00028D5D00022110000F037
:10A7A000B1F9002CECD1D9E7B8220020B02200206A
:10A7B000BC220020AC220020C022002070B5040082
:10A7C0000720002913D08D0711D1094801600949DC
:10A7D00020000A80084A09491360FFF78DFF00280E
:10A7E00005D10122064B16301A70FFF781FF70BDAC
:10A7F000C0220020AC220020B422002005A70100C6
:10A80000B822002010B5FFF779FF03005A1E9341CC
:10A81000014ADBB2137010BDB82200200E230028BD
:10A8200002D0024B1860002318007047B0220020AD
:10A830000E23002802D0024B186000231800704736
:10A84000BC220020074B10B51B68002B07D098478F
:10A85000002803D00022110000F054F910BDFFF7CA
:10A8600057FFFBE7B422002070DF704771DF7047AD
:10A8700060DF704710B5FFF73FFD10BD074B10B507
:10A880001C78002C07D1012220001A7001F072FF01
:10A890002100FDF736FD002010BDC0460C2300202E
:10A8A000F0B58BB00500FEF71FFF002001F062FF3E
:10A8B000036806009B699847336804001B6A3000F0
:10A8C000984733680700DB6A300098470300288800
:10A8D00010380B2875D803F021FE064B7474746E83
:10A8E0007474747A7497AE882000310000F016FEFC
:10A8F000AB7920009C466B7B0121019302235830E9
:10A9000002788A431343220003705632137805A855
:10A910005B181370624604AB9970DA701E800023D6
:10A9200004AA05931381D372137353739373D37370
:10A9300013742B00019916339172E91D06220993B5
:10A9400003F06CFA29000B2004AB06220E31C0186C
:10A9500003F064FA94346368A360A068002830D0E0
:10A96000C36804A99847A368002BF4D01B69F3E7D8
:10A9700038492000AE8800F0D1FD210056310B7817
:10A98000AA79013BDBB20B70002B03D102208B783C
:10A9900083438B7004AB1E809A70A0346368A360FD
:10A9A000A06800280DD0C36804A99847A368002BAD
:10A9B000F4D01B69F3E75B69A888A91D002B00D0C0
:10A9C00098472900380001F00DFA0BB0F0BDAE79C0
:10A9D000002E05D122000121583213788B431370C9
:10A9E000636E002BEDD01C4A002AEAD0A366A06E4D
:10A9F0000028E6D0C36831009847A36E002B01D130
:10AA0000636EF3E71B69F1E7012269460D26AB7B14
:10AA1000AE571A4001925A07920FDB080A720B7365
:10AA20000622E91D04A803F0F9F9019A04ABDA71D2
:10AA30006A46127A9E711A726A46127B20005A7216
:10AA40002B000F3307938C348030236804A9984778
:10AA5000B7E7C046FFFF0000818101001FB58022DB
:10AA6000A323D205DB00D3580820DB0700D4053030
:10AA70001D4B48221D49FFF7A1FE00280BD080B2D4
:10AA8000002808D1BFF34F8F194B1A4ADA60BFF381
:10AA90004F8FC046FDE702AC08220021200003F0E2
:10AAA000C6F9012320002370FFF7E2FE002802D040
:10AAB000072004B010BD6846FFF7D8FE0028F7D184
:10AAC0006946FFF7D1FE0028F2D10B48FFF7A6FE3A
:10AAD00080B20028EDD10948FFF7AAFE80B2002815
:10AAE000E7D100F029F8E4E77DA80100C4220020A6
:10AAF00000ED00E00400FA05A1A8010075A801001E
:10AB00007047000080B2002808D1BFF34F8F044B7C
:10AB1000044ADA60BFF34F8FC046FDE77047C04676
:10AB200000ED00E00400FA0577DF704778DF70473A
:10AB30007ADF70477CDF70477FB5002302ACA380CB
:10AB4000134B144E0293C8235B00E380803BFF3B12
:10AB500001AD30002B7003F0A5F9310082B228005E
:10AB6000FFF7E8FF80B200280FD180208000FFF7B8
:10AB7000DDFF80B2002808D12000FFF7D9FF80B2A6
:10AB8000002802D1FFF7D0FF80B204B070BDC046EC
:10AB90002800900184ED01007EDF704768DF704778
:10ABA00070B500200D0001F0E5FD0368DB6A9847F1
:10ABB0002B780400142B1ED003D8132B0CD00020AC
:10ABC00070BD152B1FD0222BF9D16B681888236913
:10ABD000002BF4D09847F2E76B68012518889B7822
:10ABE000646819005A08DB0629402A405B0F002CD4
:10ABF000E5D0A047E3E76B6818889978A368002B35
:10AC0000DDD09847DBE76868827813091207120FD6
:10AC1000012A03D0022A0BD0002106E0013BDBB25F
:10AC20000021022B01D8064AD15C0088E368E6E7E0
:10AC30000421012BF9D00131022BF6D0ECE7C046FC
:10AC40008AED0100014B18787047C0460D230020A3
:10AC5000F0B51D000023304F87B000923A7806000F
:10AC60000C009A4204D1FFF77BFB002803D00B2392
:10AC7000180007B0F0BD002D0ED003A922200395C7
:10AC8000FFF78CFF002807D006230828F0D01138E2
:10AC9000434243410433EBE7002302AA1000137040
:10ACA000FEF772FB0028E2D101251C4902220B7835
:10ACB0002E40AB433343072693430193009B2C4024
:10ACC00033409340AC409C46019B02AA1C431C238A
:10ACD0009C4363461C430E239B181880104B0C703A
:10ACE0000393022303AC2371093002AB0522C01881
:10ACF00003F094F821000B48FEF7BEFB002807D0B4
:10AD000033000428B4D0013B0828B1D00533AFE7A5
:10AD10003D700300ACE7C0460D2300200420002056
:10AD2000A1AB01000E23002010B50748FEF78EFCF2
:10AD30000023984206D00733042803D0013B08289B
:10AD400000D00533180010BD0E230020002373B57A
:10AD500001930F4B01AD1B780E0029002B70FEF7FD
:10AD600091FE041E05D00423052800D007331800E7
:10AD700076BD31002800FEF7B9FB23000028F6D08D
:10AD800007230428F3D0013B0828F0D00533EEE771
:10AD90000E23002073B5114C0E0005000522210082
:10ADA000684603F03BF8012E03D0022E10D0022398
:10ADB0000CE002222378B3439343694628002370B2
:10ADC000FFF7EAFE0023984200D00B33180076BD4F
:10ADD000012322781343B343EFE7C0460420002049
:10ADE000094B10B51A7801000923002A09D0074839
:10ADF000FEF7B4FB0023984203D003330E2800D0A3
:10AE00000333180010BDC0460D2300200E23002080
:10AE100010B5FEF786FE10BD022310B50B708C3303
:10AE20000B713F3B4B712D338B714A1C0431FEF784
:10AE30004FFE10BDA2DF7047A3DF704763DF70478E
:10AE400010B586B06B46DC1D002302AA2370C15CDE
:10AE500099540133102BFAD121001000FFF7EEFFB7
:10AE60000023984200D12378180006B010BD0000DE
:10AE70000122F0B5438A87B003930378040001925E
:10AE8000002B3AD0234E83180093234A33680027BF
:10AE90009C461100BC4511D00023981E012804D9FE
:10AEA0000098D55CC05C854231D10133102BF4D1C0
:10AEB0001120784309180B7C01931EE00098FFF7DE
:10AEC000BFFF237802900190002B01D1123400942F
:10AED000042F12D01125380068430F4C102220187F
:10AEE000009902F09BFF002233685D436419A27051
:10AEF000E270029A013322743360019A05AB9A70B2
:10AF00005888039B00040343180007B0F0BD0137C5
:10AF10001132BFE71023002014230020F0B59BB0AE
:10AF20001F0020AB029102CB0BAC1B880391049352
:10AF300022AB1B880190059323AB1B78200006935E
:10AF400025AB1E8826AB1B78079327AB1B7808938D
:10AF500008ABD91D0A70012202F060FF302322786D
:10AF60001A420ED00CAC03220021200002F05FFF39
:10AF70000622A37893431A0002231343A3703A4B8B
:10AF8000238013AC1C220021200002F050FF0BABE9
:10AF90001D7830232B40591E8B410CAA5B421A406E
:10AFA00025706261002E05D0249B002B02D06360C7
:10AFB000268166810DAC03220021200002F037FFBC
:10AFC0000121079B089A0B400A401201DB00134342
:10AFD000069A0A401100022213430B43A370322346
:10AFE0001D4209D0781E042806D803F097FA0310F2
:10AFF00012141600112323700C231D4211D0781E49
:10B0000004280ED803F08AFA0B27292B2D002123C0
:10B01000F1E73123EFE71223EDE72223EBE71123DA
:10B020006370222008AB06220021C01802F0FFFE48
:10B03000029B0EAD0E93049B2A002B81059B13A946
:10B04000AB81039B01982B61289B6C60FFF7F2FE9C
:10B0500080B21BB0F0BD2123E2E73123E0E71223E9
:10B06000DEE72223DCE7C04611110000F0B589B00D
:10B0700000930EAB1B8805000F00160001930322FE
:10B080000FAB002102A81C7802F0D1FE01230E2094
:10B090001C40DB181C4302AB9C700D4B02AA1380B2
:10B0A00002AB06220021C01802F0C1FE03AC02ABC5
:10B0B0006360009B109A2381019B21002800039765
:10B0C000A3812661FFF7B8FE80B209B0F0BDC0468B
:10B0D00011110000022070470220704770DF704796
:10B0E00071DF704772DF704773DF704774DF70473E
:10B0F00075DF704776DF704777DF704778DF70471E
:10B1000079DF70477ADF70477BDF70477CDF7047FD
:10B110007DDF704788DF70471420704764207047D8
:10B12000A0208001704710B50400FFF7DFFF032364
:10B13000002805D101210300583422788A43227067
:10B14000180010BD08003B2110B58A4200D02839F4
:10B15000FFF7D0FF0323002800D10300180010BD23
:10B16000030010B5FE330A00598E03681B6A984726
:10B1700010BD10B50800FFF7C7FF0323002800D15A
:10B180000300180010BD10B50800FFF7BBFF032334
:10B19000002800D10300180010BD080010B51100F0
:10B1A000FFF7A6FF0023984200D00333180010BD1C
:10B1B000080010B51100FFF7ABFF0023984200D044
:10B1C0000333180010BD10B50800FFF797FF0023E8
:10B1D000984200D00333180010BD10B50800FFF7E7
:10B1E0008FFF0023984200D00333180010BD10B524
:10B1F0000800FFF781FF0023984203D00533112890
:10B2000000D0023B180010BD024B0B6009231360F5
:10B210007047C04628EE010008207047B830017022
:10B2200000207047B930017000207047022070473D
:10B23000B83000787047B930007870470020704708
:10B2400010B50368002B01D00800984710BD10B559
:10B250000368002B01D00800984710BD02000300CE
:10B2600010B5F33211786C309B6F984710BD10B554
:10B27000002801D01CC91CC010BD7047030010B5C8
:10B2800042689968501008181B68D20701D50268F7
:10B29000D358984710BD13B50C001100012C0DD8E0
:10B2A0006B460622581C02F0B9FD00206B46694629
:10B2B0001C70FFF713FF002805D003E00120A31E38
:10B2C0008342F3D9032016BD73B568460E001500FE
:10B2D000FFF706FF032400280DD1002E02D06B4695
:10B2E0001B7833700024A54205D06B460622591CFA
:10B2F000280002F093FD200076BDF8B506000D0091
:10B30000002407273300BA331B78A3420FD96B7987
:10B31000A3420CD93800604301002B68BB3171187F
:10B3200018180722013402F079FDE4B2EAE72C7123
:10B330000020F8BD112337B5080001AC23700D00C3
:10B3400002F0B0FD290082B22000FFF7DFFE0023EB
:10B35000984200D0033318003EBD0000012110B513
:10B36000044A0800FDF7B6FD0023984200D00B33D5
:10B37000180010BD95B70100F8B503680700DB6C35
:10B380000D000C799847032384420DD80023072130
:10B390002879DAB2904209D90A005A432C6801335D
:10B3A000125D032AF5D104231800F8BD3E000024E5
:10B3B000BA3634702B79A34211D9072161432B6827
:10B3C0003078591807235843BB301A00381802F058
:10B3D00025FD3378013401333370E4B2EAE700230A
:10B3E000E2E710B50C00C97F01201F2902D800290F
:10B3F00001D1032010BDD37F2000FFF773FE00288A
:10B40000F7D1208CFFF77AFE0028F3D0F1E7000097
:10B41000F8B505000400AC356B68AB60A86800287F
:10B4200007D0C36821009847AB68002BF4D01B6994
:10B43000F3E72600B0363568002D05D02F692800C7
:10B4400001F018FE3D00F7E72200FC21356058327C
:10B45000137826000B40137023000A3656331D70F4
:10B460009D711F222900300002F0E1FCF5772A3699
:10B470001F222900300002F0DAFCF577606E002808
:10B4800004D0056901F0F6FD2800F8E7250098359D
:10B4900060662868002804D0066901F0EBFD3000E2
:10B4A000F8E72600A43628603568002D05D02F69FE
:10B4B000280001F0DFFD3D00F7E72000356029009E
:10B4C0000C226C3002F0B3FC2000084BE567A36748
:10B4D00029000C22803002F0AAFC2300044A8C339D
:10B4E000903428001A602560F8BDC0464FB20100B4
:10B4F00041B2010010B50400FFF78AFF03000620E7
:10B50000002B0AD1220001211800FE324942518647
:10B51000BA34463A13705370237010BDFE30418622
:10B520007047FE30408E7047F0B593B00190002018
:10B530000C0001F01FF90368DB6A9847FFF782FBF4
:10B5400006AB00280ED000221A7105AA0692082226
:10B5500018001A730AAA9A60FFF742FC002803D069
:10B5600013B0F0BD18711873002727732771019B62
:10B57000BA331B78BB4242D907237B431A00019997
:10B58000BB32CB18BB331B788A180292022B2ED108
:10B59000002506AE337BAB4223D9AB000393089B57
:10B5A000AA0099580298FFF733FC00281CD0B36812
:10B5B0009C46AB001900237B614402939A00086803
:10B5C000A368D050029B01332373337B5A1E9542EC
:10B5D00005D00C481B1860469B001B580B6006AB3F
:10B5E0001A730137FFB2C2E70135EDB2D1E7237913
:10B5F000216802989A00013350502371F1E700202E
:10B60000AEE7C046FFFFFF3F70B50C0009789AB067
:10B610000222012908D06388032908D1A03B1F4DCD
:10B620009BB20A00AB4208D910001AB070BD203B93
:10B630001B499BB203228B42F6D81A4BA1880322E6
:10B640009942F1D80AAB009312AB02936A460023E9
:10B65000050013711373B8352B78002B17D104AE86
:10B6600018220021300002F0E2FB23783000337012
:10B670002B7833726B46F36063883382A3887382BE
:10B68000FFF732FD00229042CED00332CCE769466C
:10B69000FFF74AFF021EE2D0C6E7C046603F000047
:10B6A000E03F0000FF3F0000F0B59DB01E006B467C
:10B6B00004001A70581C0622229D02F0AFFB002ED7
:10B6C0002ED0328802AB1A8072885A80B2889A8053
:10B6D000F288DA800CAB04AE049314ABB36027009D
:10B6E0000023B937337133733B78002B1ED101220D
:10B6F0003B78022708A9134058000B784E60BB43E3
:10B700000343002D1AD120003230007893431040BB
:10B7100003430B70A38D0B81E38D4B81238E17E0C8
:10B720001A4B029396239B040393D3E73100200026
:10B73000FFF7FAFE0028DAD01DB0F0BDA8799343D8
:10B74000104003430B702B880B816B884B81AB88B7
:10B7500002AA68468B81FFF7DDFC030000208342CC
:10B76000EAD00630082BE7D006D80130042BE3D00E
:10B77000834209D10420DFE70520112BDCD0044AE5
:10B780009342F7D0102BF5D00B20D5E732006400A0
:10B79000023200007FB50400002000F0EBFF0368D8
:10B7A0006D469B6998470300F3331C70114B0600EC
:10B7B000009300230290019321300F4BFF30F836A5
:10B7C000EB600400A8420CD0FDF788F8002C08D0EC
:10B7D000EB68002B03D05B68290020009847EB68DA
:10B7E000E36030000022002302F092F82800FDF709
:10B7F00075F87FBD5DB2010090ED0100A0DF7047DC
:10B80000A4DF7047A5DF7047A6DF7047A8DF704749
:10B81000A9DF70470020704713B504680093A4683F
:10B8200013000A000149A04716BDC046FFFF0000F3
:10B8300037B50800002511006A4655806D46069C04
:10B84000019322882A806A46FFF7DCFF0323002841
:10B8500002D12B882380030018003EBD37B506AC0B
:10B860002578046801950093246913000A000149B2
:10B87000A0473EBDFFFF000010B50368002B01D0BC
:10B880000800984710BDF8B5040000200D00160010
:10B8900000F070FF03689B69984723689F69FFF772
:10B8A00040FE330001002A002000B847F8BDF0B583
:10B8B000D48B02001E000023457985B0C4329D421E
:10B8C00024D908321700083F3F88A74211D1183306
:10B8D000DB00C3180E241A8902236C4423800368FA
:10B8E00003AD00949F682B00B847002803D005B033
:10B8F000F0BD0133E3E723880620022BF7D12B8824
:10B9000000209B07F3D001233370F0E70420EEE71B
:10B91000F0B587B000260C0069464E806E461500D3
:10B920000CA90DAA0988127831800193002A24D12C
:10B9300001004679C43196420ED908310F00083F04
:10B940003F88AF4225D130211C32920080184268D6
:10B950000132D27F0A421ED16A4629002000FFF739
:10B960004FFF0C2854D045D8052851D0072851D076
:10B97000002398420AD00B2308E06A4629002000E1
:10B98000FFF73EFF0323002800D10300180007B093
:10B99000F0BD0132CFE710210A4051424A41002058
:10B9A00002AEF3600CABB360204B01323580B27055
:10B9B000B0809C4207D100F0DDFE03689B69984788
:10B9C000FFF7AFFD040031002000FFF71DFF00234B
:10B9D00082B29A42DAD0112A26D01DD8082A21D064
:10B9E0006A4629002000FFF70BFF05230028CDD071
:10B9F000023BCBE710280DD003D808230F28C5D071
:10BA0000B9E70B4B984203D0D0239B019842B2D1A7
:10BA10000323BBE70423B9E7064B9A4204D0064B45
:10BA20009A42DDD10623B1E70523AFE7FFFF00000F
:10BA300002300000033000000134000010B502782D
:10BA4000002A0BD10C781300002C05D1438A488AB8
:10BA50001B1A58424341DBB2180010BD0023012AD3
:10BA6000FAD10A78012AF7D1013101300F3202F000
:10BA7000C6F943424341EEE7F0B5040097B0080031
:10BA80002E250B91FFF7F4F904ABED1810902A0066
:10BA900010A90120FFF7B2FE002802D0032017B042
:10BAA000F0BD2B880B9A0A9093830B9B0A9A1B7DFF
:10BAB000934200D8BDE06379132B01D90720EEE74C
:10BAC0000B9B9B690C930A9B0C9A9B009D586B697E
:10BAD000002B07D16B8B002B04D16B1CDB7F022B5F
:10BAE00000D1A1E02800FFF7C3F9002610900D96C1
:10BAF0000C962B0028331B78B34219D96A6AB3001D
:10BB00009F580023180011A90B70CA1801335070F8
:10BB1000102BFAD1494B38004B82FFF78FFF0028DA
:10BB200003D07B690C937B8B0D930136F6B2E0E773
:10BB30006179AB1CC900C43161186A1CDB7FD27FFC
:10BB4000089129002A31097800200791290029311C
:10BB5000097806910D9905910C990491297F03911B
:10BB6000298B0291698B01916969009110A9FFF7F6
:10BB7000D5F9002800D091E7637907001A001C323C
:10BB800092001833A218DB005560E3189B88EB8302
:10BB90006379013363712B0028331B78BB4243D98F
:10BBA000C2235B00E35C072B88D86A6ABB009E58FF
:10BBB0000023180011A90B70CA1801335070102B04
:10BBC000FAD11E4B30004B82FFF738FF0C90002853
:10BBD00027D13000FFF74CF9C2214900625C738B1A
:10BBE000C3325200A2180292327F10900192328B1F
:10BBF00010A9009272690C98FFF738FA002800D05B
:10BC00004CE7C2214900635C1A0058329200C033ED
:10BC1000A2185B005660E318DB88F383635C013392
:10BC200063540137FFB2B6E70A980130C3B20A93F2
:10BC30003BE7237900200133237130E7012900001D
:10BC400070B50C220D000021040002F0F0F8002372
:10BC50002361024B25602000E36070BD79B80100CC
:10BC6000F0B5040087B0236B6363606B002807D0D6
:10BC7000C36821009847636B002BF4D01B69F3E77E
:10BC8000206B002804D0056901F0F4F92800F8E7DA
:10BC90002063A080E068002804D0056901F0EAF97B
:10BCA0002800F8E7E060A069002804D0056901F0E9
:10BCB000E1F92800F8E7666AA061002E05D0356931
:10BCC000300001F0D7F92E00F7E701AD31006662D0
:10BCD0002800FFF7B5FF23002A00383383CA83C347
:10BCE000EB6831006364A6642800FFF7A9FF230016
:10BCF0002A004C3383CA83C3EB683100A365E66531
:10BD00002800FFF79DFF23002A00603383CA83C306
:10BD10003000EB682667E36607B0F0BD70B505003C
:10BD2000FFF79EFF04000620002C1DD128005022A2
:10BD30002100743002F07BF82800653020222100B9
:10BD4000FF3002F074F8280008222100C43002F00D
:10BD50006EF828008730FF301022210002F067F8CB
:10BD6000C22320005B00EC5470BD70B504000D00D0
:10BD70006368A360A068002807D0C36829009847BB
:10BD8000A368002BF4D01B69F3E770BD10B5C3683E
:10BD9000984710BD0B0010B51100042B0BD0052BDC
:10BDA00013D0032B06D1836B002B03D00C4B383000
:10BDB000002B07D110BDC36C002BFBD0084B4C30BF
:10BDC000002BF7D0FFF7E2FFF4E70300026E6033C9
:10BDD000002AEFD0024A002AECD01800F2E7C04651
:10BDE00081810100F0B50B888FB005000C00512B4C
:10BDF00000D17BE005D8012B62D0502B2ED00FB0A4
:10BE0000F0BD522B6BD0532BF9D1CE8805212B00DE
:10BE100000206A79C433009000988242EFD9083339
:10BE2000180008380088B0426CD1062900D1AAE079
:10BE300007296AD0320002293ED1A3880AA90B80C3
:10BE40004E80237A0B71A38BCB80E38B20340B8144
:10BE5000CC6028001430FFF788FFD0E702000023F1
:10BE6000CE884179C83299420ED90832100008387C
:10BE70000088B0420AD11C339B00EB185A68531C4F
:10BE8000D87F3023184203D10221C0E70133EAE70B
:10BE9000A31CD97F0134E37F09020B43810602D53D
:10BEA00003219C0707D40421C00604D503390B40A5
:10BEB000594259410331D28B2800FFF76BFF9EE7AF
:10BEC0000C7AEB682B612869002800D197E7C368DA
:10BED000210098472B69002BF3D01B69F2E7002360
:10BEE00088881A001900FFF793FC88E78B79012BEB
:10BEF00005D0022B00D082E70E89072187E70E8943
:10BF0000062184E70098013085E700230593A38884
:10BF100002AA13805680E38B06AF9380238C002106
:10BF2000D38023001022223338000193049301F0C0
:10BF30007EFF02233B70009B1C339B00EB185A686A
:10BF400013002A3319780023994206D01000D36CCD
:10BF5000403002A9984702AB9B89A0883900BB807A
:10BF6000FFF754FCBB88002B00D048E7A3880AA940
:10BF70000B804E80A37A0B71E38BCB80238C0B81DB
:10BF8000019BCB6065E7162002AB0A220021C01896
:10BF900001F04DFFA38806AF7E803B80A38B0AAEE5
:10BFA000102200213000BB8001F041FF01230098E6
:10BFB00033701C3080002D186B681A0029321178FC
:10BFC0000022914205D0180039002C309B6B984715
:10BFD000BA89B280BB89002B0BD1BA68002A08D07D
:10BFE000B17901330B43B371BB883381FB88F260B5
:10BFF0007381A0883100FFF709FC00E70220704739
:10C0000002207047002070470020704700487047AA
:10C01000FFFF000002207047022070470220704797
:10C0200002207047022070470220704702207047AC
:10C03000022070470220704702207047022070479C
:10C0400002207047002313607047002070470220D1
:10C05000704702207047022070470220704702207C
:10C060007047002070470020704700207047022072
:10C0700070474160704781607047C16070470161DF
:10C0800070474161704702207047022070470220CC
:10C09000704702207047022070470220704702203C
:10C0A0007047022070470220704700207047704799
:10C0B000022070470220704770470220704700201E
:10C0C0007047704766DF704748DF704700797047F8
:10C0D000103070471030704710B503689B6B98475D
:10C0E000FFF7F2FF10BD0000F0B597B005930368AD
:10C0F00007AD1B680491039311002B00060091C942
:10C1000091C30024D36821000C220CA8EB602C61A1
:10C1100001F08DFE22000B4B10940F9311AB1C709D
:10C12000191901344A70102CFAD15A820193059BD7
:10C130002A00009304990CAB3000039CA04717B071
:10C14000F0BDC04649C1010010B50368002B01D005
:10C150000800984710BD0000044B10B51A78002A5B
:10C1600003D000221A70FEF7D3FA10BD0C23002072
:10C1700070B5FC30446D0500002C0DD1242000F07A
:10C1800067FF064B44608361054B8460C4600461B3
:10C190004461C46103606865686D70BD34EF01007F
:10C1A00008F0010070B5FC30056D0400002D11D1C0
:10C1B000342000F04DFF084B85604360074B45611C
:10C1C0000361074B0562C361064BC5628362064B80
:10C1D00020650360206D70BD64EF010054EF010025
:10C1E000B0EF0100C0EF0100D0EF0100082370B5EF
:10C1F00096B002AA137106AA029202AA1373100043
:10C200000EAB0D0004930024FEF7EAFD0726A042C2
:10C2100010D02C7116B070BD3000029B60430193AA
:10C220002A680199A30010185958072201F0F6FD59
:10C230000134E4B202AB1B79A34205D96B79A34266
:10C24000EAD82C710020E5E72C710726002402AB08
:10C2500029791B7B6118A34202D96B79994201DBD2
:10C260002971EFE771432B685918049B0193019AD8
:10C27000A30098580134FEF7CFFDE4B2E7E710B50C
:10C28000FEF752FD10BD10B508001100FEF782FD4B
:10C2900010BD10B508001100FEF758FD10BD10B517
:10C2A000080011001A00029BFEF7D2FC10BD00002E
:10C2B0007FB503791548002B22D0154E154C3378E5
:10C2C0002000002B1CD102AD2800FFF7FBFE002848
:10C2D00010D16B88592B0DD12B78AA88D91F012931
:10C2E00010D800920C4A2021200001F0A9FD012362
:10C2F000337004E020220949200001F0DAFD20001B
:10C3000004B070BD0092064AEDE7C04634F001006B
:10C31000D0240020B024002056F001004EF001008F
:10C3200073F0010070B5037904000920002B1AD0C6
:10C33000FEF768FA03000520002B14D12500FC3518
:10C34000E86C00280AD1686D00280DD1200010305B
:10C35000FFF7D0F8002806D1207104E003681B6ABB
:10C3600098470028EFD070BD03689B6A9847002863
:10C37000ECD0F8E770B50400E3692362206A002876
:10C3800007D0C36821009847236A002BF4D01B69AB
:10C39000F3E7E069002804D0056900F06BFE28008F
:10C3A000F8E7E0616060A060E0602061606170BDFE
:10C3B00010B5FFF7DFFF0623002800D103001800A7
:10C3C00010BD70B504000068002804D0056900F0B5
:10C3D00051FE2800F8E7206070BD000010B5040091
:10C3E000024B08C0FFF7EDFF200010BD54EF010025
:10C3F00010B50400FFF7F2FF200000F03BFE200024
:10C4000010BD70B504000068002804D0056900F074
:10C4100031FE2800F8E7206070BD000010B5040070
:10C42000024B08C0FFF7EDFF200010BD64EF0100D4
:10C4300010B50400FFF7F2FF200000F01BFE200003
:10C4400010BD70B50400E36A2363206B002807D099
:10C45000C36821009847236B002BF4D01B69F3E7D6
:10C46000E06A002804D0056900F004FE2800F8E71F
:10C47000E06220000830FFF7C4FF20001430FFF70F
:10C48000A0FF206A002804D0056900F0F3FD280011
:10C49000F8E7206270BD0000064B70B50400036031
:10C4A0004068002804D0056900F0E4FD2800F8E7A2
:10C4B000200070BD68EE010010B50400FFF7ECFF2E
:10C4C000200000F0D7FD200010BD0000064B70B525
:10C4D000040003604068002804D0056900F0CAFD2C
:10C4E0002800F8E7200070BD78EE010010B50400C8
:10C4F000FFF7ECFF200000F0BDFD200010BD0000A4
:10C50000064B70B5040003604068002804D005693C
:10C5100000F0B0FD2800F8E7200070BD88EE0100B3
:10C5200010B50400FFF7ECFF200000F0A3FD200091
:10C5300010BD0000064B70B5040003604068002881
:10C5400004D0056900F096FD2800F8E7200070BDD2
:10C55000B0EF010010B50400FFF7ECFF200000F081
:10C5600089FD200010BD0000064B70B5040003607B
:10C570004068002804D0056900F07CFD2800F8E739
:10C58000200070BDC0EF010010B50400FFF7ECFF04
:10C59000200000F06FFD200010BD0000064B70B5BC
:10C5A000040003604068002804D0056900F062FDC3
:10C5B0002800F8E7200070BD98EE010010B50400D7
:10C5C000FFF7ECFF200000F055FD200010BD00003B
:10C5D000064B70B5040003604068002804D005696C
:10C5E00000F048FD2800F8E7200070BD34EF01009E
:10C5F00010B50400FFF7ECFF200000F03BFD200029
:10C6000010BD0000064B70B50400036040680028B0
:10C6100004D0056900F02EFD2800F8E7200070BD69
:10C6200044EF010010B50400FFF7ECFF200000F01C
:10C6300021FD200010BD0000064B70B50400036012
:10C640004068002804D0056900F014FD2800F8E7D0
:10C65000200070BD74EF010010B50400FFF7ECFF7F
:10C66000200000F007FD200010BDF7B5037907009A
:10C670000E001400002B11D008220021684601F0A2
:10C68000D6FB0A256B461D713000FBF7BBFDE36846
:10C6900000906946200098472800FEBDFEF7DEF9AD
:10C6A00005000C20002DF8D1012308223B71290040
:10C6B000684601F0BCFBE7E770B5FC30446D05004F
:10C6C000002C0DD1242000F0C3FC064B4460836194
:10C6D000054B8460C46004614461C46103606865A3
:10C6E000686D70BD34EF010008F00100124B10B509
:10C6F00008330360114B040003618423104A5B007C
:10C70000C250C018FCF7F4F820000E4BBC30236177
:10C71000FFF744FF2000B030FFF7F2FE2000A43006
:10C72000FFF7D4FE20007030FFF7B6FE2000FBF7C5
:10C73000E7FD200010BDC04698F00100A4ED010007
:10C7400058F40100A8EE010010B50400FFF7CEFF79
:10C75000200000F08FFC200010BD10B51F2200212A
:10C76000040001F064FB0023E37710BD004870472C
:10C77000582300200048704758230020444AF0B551
:10C7800006000261A022434B1A3608330360010001
:10C790000023C2820400320085B0037183600375F8
:10C7A00003833931137001329142FBD180258022FD
:10C7B0002000AD00D201F3773584110000933C30A6
:10C7C0000023FBF7A5FD23002100443303931A0047
:10C7D0002B0000256331157001328A42FBD1039A88
:10C7E000FC21D577220064321380230066331D704C
:10C7F000137920000B40137123006C331D70264BFE
:10C80000656723670C2200217C3001F010FB2300B8
:10C810002700224A8C331D609037043B00211A60A8
:10C8200038000C2201F003FB1D4B1E4AFB60230065
:10C83000A4333D611A601C4A5D60DA601B4A1D61C9
:10C840009A61DD613000FFF788FF0398FFF785FFED
:10C85000174B2000236123000930C8331D705D7021
:10C860009D70FF3001F094F823003133FF33DD6019
:10C870008423104A5B00E250012238335242E252D4
:10C8800023002000FC33DD641D655D6505B0F0BD4F
:10C89000A8EE010098F0010068EE01004FB201001F
:10C8A00041B2010078EE010088EE010098EE01002F
:10C8B000A4ED010058F4010070B500250400244BDC
:10C8C00085800360234BC5608360234B8561436192
:10C8D000224B45620362224B0563C3622900383054
:10C8E000FFF7AEF9200029004C30FFF7A9F920002E
:10C8F00029006030FFF7A4F91A4B220023602300BF
:10C90000C432743320C39342FCD126001D00653627
:10C91000FF36280008220021083501F088FAAE42CF
:10C92000F7D1210000228531FF3104C6B142FCD18C
:10C93000C2235B00E2542300220000218733973298
:10C94000FF33FF32198002339A42FBD1200070BDC1
:10C9500084EF010044EF010054EF010064EF010097
:10C9600074EF01003CEE010070B5FC30C36C0400B4
:10C97000002B07D1CC20400000F06AFB0500FFF738
:10C980009BFFE564E06C70BD70B5FC30C36C0400C7
:10C99000002B07D1CC20400000F05AFB0500FFF728
:10C9A0008BFFE564E06C70BD10B5054C2000FFF70F
:10C9B000E5FE044A0449200000F004FB10BDC04617
:10C9C0005823002000200020EDC6010001704B1C00
:10C9D0000AD001238B404360044BC360044B0361C6
:10C9E000044B4361044B83607047C0460805005008
:10C9F0000C050050100500501405005010B50078CB
:10CA000040B200F04BFB10BD0023C35670B50500CB
:10CA10000C00013304D12A220849094801F01CF90D
:10CA2000002C02D0012C00D070BD0023A022EB56B8
:10CA3000D205C133FF339B009C50F5E7DCF00100C9
:10CA400014ED0100F7B5A223A022DB00D205D358D4
:10CA5000BE220193314B5200995800293FD0C12189
:10CA60008900595800293ADA0024E025C0269C5054
:10CA7000ED00B6022A4BA700F85800282CD0294B0D
:10CA8000E35C002B17D0019B0121E3400B4227D030
:10CA90002300A022C133FF339B00D2059B589B0388
:10CAA0009B0F032B1CD0204B1B68E3400B4217D07D
:10CAB0001E4B1B689847A023DB05FF187A593242AA
:10CAC0000AD07A591A490A407A51019AE240D307AA
:10CAD0001FD57A5932437A5101341F2CCAD1F7BD80
:10CAE000019B0122E3401342E5D12300A021C13381
:10CAF000FF339B00C9055B589B039B0F032BDAD1C7
:10CB00000C4B1B68E3401342D5D0084B02211B6835
:10CB1000D0E78022795992020A43DCE700600040A6
:10CB2000F0240020D1240020742500206C25002052
:10CB3000FFFFFCFF702500200368074A9950074A51
:10CB4000FC33196A002902D0002018627047013AAC
:10CB5000002AF6D10120F9E71C050000A18601009A
:10CB600010B50368002A03D080220220920098505A
:10CB700001221C001A62084AFC34E068002806D032
:10CB80000020A322E060D2009B580B7010BD013A38
:10CB9000002AF2D10120F9E7A186010010B50B4C63
:10CBA00002680B4BA14205DC0A498160CC21490493
:10CBB000D15010BD084CA14204DC0849816080219D
:10CBC000C904F5E706498160CD21F9E78FD003005C
:10CBD00024050000A08601007F1A060090D0030003
:10CBE000801A060070B504001000A025C026C130D0
:10CBF000FF30F600ED05800046510800C130FF30DF
:10CC000080004651A1252068ED004251054A81501F
:10CC100019002000FFF7C2FFA02305212268DB00D6
:10CC2000D15070BD0C050000F8B51700284A05006A
:10CC300013780E00DBB2012B21D15078C9B28842A3
:10CC40001DD19078F9B2884219D1224C6B73200023
:10CC500000F042FC22000023FC326F712E712C6028
:10CC60009362A022D200A3501B4A3100A35001338B
:10CC7000A35028003A00194BFFF7B4FFF8BD184B3A
:10CC8000197801290BD15878F1B2884207D19878E8
:10CC9000F9B2884203D10223124C6B73D7E71178A3
:10CCA000002906D10123F1B213705170F9B29170CD
:10CCB000CBE71A78002A06D101321A70F2B25A7004
:10CCC000FAB29A70E7E7084801F02EF80024BEE7B0
:10CCD0007825002000300040FC0F0000A0860100F5
:10CCE0007C2500200040004036F10100036800224E
:10CCF0001900FC3110B58A62A021C9005A500649BA
:10CD00005A5001325A5005220421825641568368F6
:10CD1000FFF768FF10BDC046FC0F0000036800214C
:10CD20001A00FC3210B5916001315961074B9168CE
:10CD3000002905D000240473FFF7D8FF200010BDA0
:10CD4000013B002BF3D10120F9E7C046A186010089
:10CD5000036810B51900FC318A6A0020012A08D145
:10CD6000044C1C5988625A610238A40701D401207E
:10CD7000404210BDC4040000F7B50192B1221E006C
:10CD800003684910D20099508021012289005A502D
:10CD9000190000240500FC31CC601A60771E019B4D
:10CDA000BC420BDBD91901222800FFF7D9FE00286D
:10CDB00019D02800FFF79AFF3E0010E01919002251
:10CDC0002800FFF7CDFE00280BD02800FFF7C0FF9A
:10CDD00006002800FFF78AFF002E00DB2600300047
:10CDE000FEBD0134DAE7089B002BF8D02B68FC333A
:10CDF0009A68002AFCD000229A60F0E7F8B5170084
:10CE0000B1221C000368D2004910995080220025ED
:10CE100092009D50012206009A60A54209DB069B04
:10CE2000002B04D03000FFF779FF002813D1200039
:10CE30000EE0795D3000FFF77FFE002809D030005A
:10CE4000FFF754FF3000FFF783FF002800DB2800C6
:10CE5000F8BD0135E1E701204042F9E70023C35660
:10CE600070B504000D00013304D1242205490648A1
:10CE700000F0F2FE6368002D02D0E268136070BD1E
:10CE80002269FBE747F1010014ED010010B598B0ED
:10CE90000321684600F00BFE022106A800F007FE01
:10CEA00001210CA800F003FE102112A800F0FFFDE4
:10CEB000012421006846FFF7D1FF06A80021FFF7F3
:10CEC000CDFF0CA80021FFF7C9FF210012A8FFF732
:10CED000C5FF962000F049FF68460021FFF7BEFF1E
:10CEE000210006A8FFF7BAFF21000CA8FFF7B6FF44
:10CEF00012A80021FFF7B2FF962000F036FFD8E716
:10CF000070B50D000400A0B000F0BEFE2B002200A2
:10CF10008021684601F00CF8051E03DC00F0E2FEFB
:10CF200020B070BD094B0A4E1B68002B04D119229A
:10CF30001821300000F01EF900246B463000195D06
:10CF4000013400F0AFF9A542F7D1E7E794250020BE
:10CF5000E42500200FB407B504A901C90191FFF72A
:10CF6000CFFF03B008BC04B0184710B5012000F093
:10CF70002BF800000C4910B50B681818EFF3088265
:10CF8000904205D30C220120084B40421A6010BD8C
:10CF9000074A1468002C04D0064A126812199042FD
:10CFA000F0D208601800F2E70C200020EC250020E9
:10CFB000802500208425002010B5002801D0FFF72F
:10CFC00065FFFEE70120704710B5FFF7F5FF012070
:10CFD00070477047704710B5FFF7FBFF10BD10B5E5
:10CFE000FFF7F8FF10BD0000032210B5037804001E
:10CFF00013400020012B0CD0834205D0E9220549C3
:10D000009200054800F028FE0223012022781343F5
:10D01000237010BDDAF101001AF20100032210B5ED
:10D02000037804001340022B05D0EB22064992003E
:10D03000064800F011FE0322237893431A000123CF
:10D040001343237010BDC046DAF1010040F2010025
:10D0500010B500F0B5FE041E02D1024800F064FED7
:10D06000200010BDBDF1010010B5002801D000F076
:10D07000B1FE10BD10B5FFF7F7FF10BD7047704748
:10D08000704710B5FFF7FBFFFFF7FAFF10BD10B5B3
:10D09000FFF7F4FFFBF754FC10BD000070B504006F
:10D0A0000D00431C04D11A2209490A4800F0D4FD9E
:10D0B000A023A000DB05C018E0230C21DB00C25830
:10D0C000AD008A43C250C2581543C55070BDC0461A
:10D0D0007FF2010019ED01000021114A114B116589
:10D0E000114A1188114A9950114A1178002904D027
:10D0F00010490888A821C90058505178002903D048
:10D100000C4948880C4958509278002A04D0094AA2
:10D110009188A922D200995001221A607047C04616
:10D12000FCA0004000A00040102000204C050000A2
:10D13000882500201220002044050000012310B59E
:10D140000A4ADC00A4588C4207DD013BDB00D318FF
:10D150005A680168064BCA5010BD0133112BF0D13B
:10D1600080210268024B4905D150F5E7D8F2010051
:10D1700024050000F7B50F0001212F4BB9400360D3
:10D18000A02305002D48DB0516001A580A431A5043
:10D1900080221C58120614431C50294C1859014374
:10D1A0001951195928000A430121B1401A511A593D
:10D1B0008A4396211A511A598901520052081A516C
:10D1C000FFF7BCFF002204202B681E495A506C391F
:10D1D000585018000121FC30996001901960C2601C
:10D1E00001201949404258500198026217481A50CC
:10D1F0000198006A0128FBD1A1206A601F22C000AB
:10D200001A505F50A221C9005A501E517B1C03D0F6
:10D2100003213800FFF742FF731C03D003213000C5
:10D22000FFF73CFF01220A4B29001A600948073228
:10D2300000F0F4FDF7BDC0460020004004050000EA
:10D24000140500006C0500000C0500001C05000022
:10D2500094250020E4250020C1230E4A9B00D158CC
:10D2600010B5090603D50C49096A002908D1D3581D
:10D270005B0704D5084B0021DB68002B01D110BDF2
:10D280000121064B18680028F9D0054B1B68984708
:10D29000F5E7C04600200040FC200040902500201B
:10D2A0008C25002003681A00FC32106A0128FCD18A
:10D2B00000201062014AC9B2995070471C05000055
:10D2C0000848026803210A4302600749074A084BDD
:10D2D0009B1A03DD043BC858D050FBDC054880474F
:10D2E0000548004724050040CCF50100002000203F
:10D2F0009020002009D3010009810100FEE7FEE72C
:10D30000FEE7FEE7FEE7FEE7324910B50B78012B9A
:10D310000FD1314B1B681B070BD1304BE0241A682F
:10D32000F02310001840224243D12D4A12681A42BD
:10D3300042D00B68DBB2012B0DD1274A12681207CD
:10D3400009D1F021254A12680A40402A03D1244A13
:10D3500012680A4238D08022A3230021D205DB00C4
:10D36000D150204B9960013191601F4A9968002982
:10D370001ED1C831C046C046C046C046C046C046A1
:10D38000C046C046C046C046C046C046C046C0466D
:10D3900001390029EED1013A002AE7D18021A320EA
:10D3A000C905C0000A5001328A609A68002AFCD080
:10D3B00010BD3028B9D0BCE70C4A0D4B1A60802252
:10D3C0000C4B12021A60B4E7C1228021D200C905B9
:10D3D0008B50C0E7E00F00F0E40F00F0E80F00F022
:10D3E000EC0F00F0FC00004088130000DFFF07C0D6
:10D3F00004050040186C004082B00190C046C04651
:10D40000C046C046C046C046C046C046C046C046EC
:10D41000C046C046C046C046019B013B0193002B5D
:10D42000ECD102B070470000A023F0B5DB00C25879
:10D4300085B001920022A024C250E023E405DB0065
:10D44000E25801260292224A0500E2507833E15860
:10D4500004200391E250A1238022DB00D205E25098
:10D46000E650FFF7C9FFA222D200A3589B0F334218
:10D4700028D0A3581324334225D00120A023E02232
:10D480000299DB05D2009950039978329950A02374
:10D49000019ADB00EA5005B0F0BD0E4B0420F750B6
:10D4A000FFF7AAFFA123DB00F7500420FFF7A4FF3A
:10D4B000A223DB00F3585B00DFD4013C002CECD14D
:10D4C0002000DBE71324A0260127F605F5E7C04678
:10D4D0000D0600000C050000A023E021144ADB0526
:10D4E000C90010B55A5078315A5002000023FC325E
:10D4F000D3601362A1221E21D20083500D4B040081
:10D50000C150CC210C4B4904C150A2210B4B3934E2
:10D51000FF34C9005C500A491D3CFF3C5C500121AE
:10D520009950A0230522DB00C250FFF77DFF10BDFC
:10D530000C0600000C0500002405000000F001406E
:10D54000140500000A480B4982680B4B002A08D0DA
:10D550001A6801321A6000228260D22202209200F0
:10D560008850064A1B688858190A1B0618437047DA
:10D57000FC10014000100140982500200405000027
:10D580002F23C046C046C046C046C046C046C0461F
:10D59000C046C046C046C046C046C046C046013B25
:10D5A000002BEED170477047F8B5174B174C9A68AF
:10D5B000002A09D016490A6801320A6000229A60DE
:10D5C000D22202219200A1505A6C002A1AD00027C0
:10D5D00080255F64D2236D029B00E5500D4B1B78C4
:10D5E000BB420FD00C4B1E68FFF7ACFF361ABE4291
:10D5F00008DC084B1F70C2239B00E5504033E55008
:10D6000000F05EFAF8BDC046FC1001400010014079
:10D61000982500209C250020A025002070B5124CE4
:10D620002278002A1ED1A121C425104BC9005A50CE
:10D63000C1390232FF395A5044395A500C4AAD00B0
:10D6400051590C480840C021090201435151C020E2
:10D650008021012589024000115011601D60FFF7F3
:10D660008FFF257070BDC046A4250020001001402A
:10D6700000E100E0FF00FFFF084B10B51B78002B16
:10D6800001D1FFF7CBFFFFF75DFF054A002301F053
:10D69000E5F84904C00B084310BDC046A42500208E
:10D6A00040420F00F8B5284B04001B78002B01D135
:10D6B000FFF7B4FFFFF746FF244A002301F0CEF83E
:10D6C0004B04C00BCF0B18430026220000238021FF
:10D6D00092197B410906884205D9002C03DB002002
:10D6E000012112184B41D9030023540CD003184ACE
:10D6F0002143801859410023144A01F08FF8154D39
:10D7000004002B78144E002B02D0336898421AD0B4
:10D71000FFF718FF201A022802DCFFF713FF841C12
:10D72000A82122020D4B120AC9005A502A783460EF
:10D73000002A08D101322A708022F9395202FF39B9
:10D740005A5044395A50F8BDA425002040420F00D9
:10D750003F420F009C250020A02500200010014022
:10D76000074B1A78002A09D08021C220054A4902B5
:10D77000800011504030115000221A707047C0468E
:10D780009C250020001001400022024B9A605A6440
:10D790007047C046FC10014005480168002901D0CF
:10D7A000FFF701FF08B5FFF7FFFE08BDC046000008
:10D7B00044110140084B10B51A68002A01D11A1D06
:10D7C0001A601A1D1B68934204D05B220349044867
:10D7D00000F042FA10BDC046A825002068F3010001
:10D7E000B0F30100F8B5050004000E001700094B66
:10D7F0001022083308C52800002100F018FB064B52
:10D80000280063613A003100FFF70EFA034B200055
:10D810001C60F8BDC4F30100A0860100B025002003
:10D82000036870B51B6804009847074D2B689C423D
:10D8300004D0201D6169FFF7B1F92C602368200036
:10D840005B68984770BDC046B0250020F0B5050064
:10D8500085B01C000AAB1F78036803911B68160093
:10D8600098472800FFF7DCFF01235F4032002300C8
:10D870000399281D0097FFF7C1FA06002B682800BE
:10D880005B689847A01B441EA04105B0F0BDF0B5F1
:10D89000050085B01C000AAB1F78036803911B6864
:10D8A000160098472800FFF7BBFF01235F403200B6
:10D8B00023000399281D0097FFF75EFA06002B68E6
:10D8C00028005B689847A01B441EA04105B0F0BD2E
:10D8D00070B58268C3680400416A006A25001218A6
:10D8E0004B41200000F06CF8636B2835002B04D10D
:10D8F000044A0549054800F0AFF9636B28001B682E
:10D90000984770BD0E020000DCF3010020F4010016
:10D91000D0B5040016001F0000F0B6F9200000F09A
:10D9200057F826626762A06900F08EF932003B006A
:10D9300012184B41200000F043F800F0D3F9D0BD9D
:10D940007FB5060000F0A0F93500300000F040F887
:10D950006C46002328350393A5420DD02800FAF722
:10D96000BDFF002D08D0039B002B03D05B686946E8
:10D9700028009847E36873632000FAF7AFFF00F0D0
:10D98000B1F97FBD10B503689B68984710BD0000D2
:10D99000094B10B508330022036000238260C36086
:10D9A000002303614361040000F086F80349A0618D
:10D9B00000F0C8F8200010BD3CF4010085D901003A
:10D9C00007B5010000900831806900F0FAF807BD42
:10D9D000010010B50831806900F01CF910BD00008D
:10D9E00010B50400034B08330360FFF7F1FF20007C
:10D9F00010BDC0463CF4010070B50500436B040047
:10DA00002835002B04D1054A0549064800F024F9C1
:10DA1000636B28001B68984770BDC0460E0200006B
:10DA2000DCF3010020F4010010B50400034B0833BF
:10DA30000360FAF75DFF200010BDC04650F40100FE
:10DA400010B50400FFF7F0FF2000FFF713FB2000E4
:10DA500010BD00000023C35670B504000D00013353
:10DA600004D124220549064800F0F6F86368002D29
:10DA700002D0E268136070BD2269FBE747F1010044
:10DA800014ED010070B50D0004001600FEF79EFFB6
:10DA90006B1C0BD031002000FFF7DCFF01212000C0
:10DAA000FEF7B2FF00212000FEF7A8FF70BD10B501
:10DAB0000022FFF7E7FF10BD0048704764F4010043
:10DAC00010B5024800F05AF810BDC04664F40100D9
:10DAD000036870B544685B68E668A56898473300DA
